S00D00004C616233322E73726563A3
S11300002DC0000046C0000044C000007DC10000B7
S113001040C000003EC000003CC0000050C10000D1
S113002038C0000036C0000034C0000032C00000F8
S113003030C000002EC000002CC000002AC0000008
S113004028C0000026C0000024C0000022C0000018
S113005020C000001EC000001CC0000011241FBEF0
S1130060CFEFD4E0DEBFCDBF11E0A0E0B1E0ECE122
S1130070F7E002C005900D92A032B107D9F723E052
S1130080A0E2B1E001C01D92A534B207E1F704D1AA
S113009043C3B6CFC9EFD0E011E084E091E047D28A
S11300A0888181278883F9CFE1E6F0E080E88083C6
S11300B01082089580EC8093E40087EB8093E50040
S11300C087E08093E6008FE08093E70008958DE059
S11300D08093810082E49FE090938900809388005C
S11300E082E080936F00109285001092840008953E
S11300F080E88DBB80936C0085B90895AB01805373
S113010060FF03C074E0AFE002C070E0A0EFE82F2E
S1130110F0E0EE0FFF1FE85FFE4F20813181FA010E
S1130120FF230CF43196F595E795E451FF4FAF01A9
S11301304C5E5F4FC9018F709927072E02C0880F4C
S1130140991F0A94E2F790819A23892B8083329530
S113015022952F7023273F7023273596E417F50740
S113016049F708958F929F92AF92BF92CF92DF92F8
S1130170EF92FF924B015C0185E088169104A10483
S1130180B10418F180FE24C0C12CD12C76016894EE
S1130190C1F809C0C501B401A701960125D2672B96
S11301A0682B692BC1F08FEFC81AD80AE80AF80A3D
S11301B0A7019601C701B60108D2681579058A0519
S11301C09B0540F381E090E008C081E090E005C029
S11301D080E090E002C080E090E0FF90EF90DF903C
S11301E0CF90BF90AF909F908F9008958F929F92E1
S11301F0AF92BF92CF92DF92EF92FF92CF93DF93B1
S11302004B015C01EA0124E630E040E050E00ED20C
S11302100F2EFAE0CF2ED12CE12CF12CF02DA701DA
S1130220960104D2BE0180E3820F68DF2196C501E6
S1130230B401A7019601FAD1862FBE01805D5EDF6D
S1130240DF91CF91FF90EF90DF90CF90BF90AF9070
S11302509F908F900895C0E06C2F70E080E090E054
S113026044E050E0C3DF80E091E061D1CF5FF4CFA0
S1130270EC01C12CD12C7601C394C701B60172DF05
S1130280892B21F0AE01C701B601B0DF8FEFC81A88
S1130290D80AE80AF80AF1CF07DF0CDF29DF17DFF5
S11302A060E070E08BE291E088D01CD160E070E007
S11302B08AE490E082D016D180E090E0D9DF1F92EA
S11302C00F920FB60F9211242F933F934F935F9386
S11302D06F937F938F939F93AF93BF93EF93FF930A
S11302E084E091E04CD1FF91EF91BF91AF919F9148
S11302F08F917F916F915F914F913F912F910F90CB
S11303000FBE0F901F9018951F920F920FB60F9269
S113031011242F933F934F935F936F937F938F9306
S11303209F93AF93BF93EF93FF931F9904C080E013
S113033091E025D1D7D0FF91EF91BF91AF919F91DB
S11303408F917F916F915F914F913F912F910F907A
S11303500FBE0F901F901895DC01ED91FC91119741
S1130360309739F4E4EFF0E0908181E089278083CD
S1130370FFCF248135812D933C93CF010895CF93F2
S1130380DF9300D0CDB7DEB79A83898380911C01B7
S113039090911D0106967FD1892B51F489819A8110
S11303A090931D0180931C0161E070E0069693D147
S11303B00F900F90DF91CF910895EF92FF920F93DA
S11303C01F93CF93DF9300D0CDB7DEB77C018B01B1
S11303D0F8948091200190912101892BE1F48EEF12
S11303E091E090939601809395018BE692E090932F
S11303F003028093020288ED92E09093700280934E
S11304006F021092DD021092DC0281E090E0909382
S11304102101809320018EE191E09EDF9A838983FC
S1130420FC01F182E0821383028315821482069612
S113043032D1019751F57894A0911C01B0911D011E
S1130440ED91FC91119712968D919C9113970995BA
S1130450F89482E291E080DFE0911C01F0911D01AB
S113046020911E0130911F012115310539F41582A7
S11304701482F0931F01E0931E0106C0F0931F0144
S1130480E0931E01358324837ADFE981FA8136966D
S113049089819A8187599F4F918B808B938B828B13
S11304A08091220190912301009749F4E981FA8116
S11304B015821482F0932301E093220109C029815B
S11304C03A813093230120932201F9019583848397
S11304D078940F900F90DF91CF911F910F91FF901F
S11304E0EF900895F8948091220190912301892B33
S11304F0E1F082E291E030DFE0911C01F0911D0116
S113050020912201309123012115310539F41582FE
S11305101482F0932301E093220106C0F093230197
S1130520E0932201358324832ADF78940895CF93BE
S1130530DF93F894FC0120813181232B29F421E0FD
S113054030E03183208317C0EC0182E291E004DFC4
S1130550E0911C01F0911D012A813B812115310597
S113056029F415821482FB83EA8304C0FB83EA83A3
S11305703583248304DF7894DF91CF910895F89430
S1130580FC0122813381232B19F4118210821BC0B8
S11305900296E2DEE0911C01F0911D0120912201FE
S11305A0309123012115310539F415821482F09319
S11305B02301E093220106C0F0932301E09322017A
S11305C035832483DCDE78940895DB018F939F9335
S11305D049D0BF91AF91A29F800D911DA39F900D13
S11305E0B29F900D11240895A1E21A2EAA1BBB1BE1
S11305F0FD010DC0AA1FBB1FEE1FFF1FA217B307EB
S1130600E407F50720F0A21BB30BE40BF50B661F00
S1130610771F881F991F1A9469F7609570958095C4
S113062090959B01AC01BD01CF010895052E97FB68
S113063016F400940FD057FD05D0D6DF07FC02D086
S113064046F408C050954095309521953F4F4F4F43
S11306505F4F089590958095709561957F4F8F4F6A
S11306609F4F089509D0A59F900DB49F900DA49F0E
S1130670800D911D11240895A29FB001B39FC00164
S1130680A39F700D811D1124911DB29F700D811DBA
S11306901124911D0895DC012D923D924D925D929D
S11306A06D927D928D929D92AD92BD92CD92DD928E
S11306B0ED92FD920D931D93CD93DD93FF91EF91F8
S11306C08DB78D938EB78D938FB78D93ED93FD93E7
S11306D0882799270994DC01CB0181309105811D7C
S11306E02D903D904D905D906D907D908D909D905E
S11306F0AD90BD90CD90DD90ED90FD900D911D914C
S1130700CD91DD91ED91FD910D90F894FEBF0FBE5A
S10F0710EDBFED91FD910994F894FFCF2A
S113071C010000000100000051151001111E111BF5
S113072C500B411B411F1101511F511B24019101FD
S9030000FC
