S00D00006C616233332E7372656382
S11300002DC0000046C0000044C000007BC10000B9
S113001040C000003EC000003CC000004CC10000D5
S113002038C0000036C0000034C0000032C00000F8
S113003030C000002EC000002CC000002AC0000008
S113004028C0000026C0000024C0000022C0000018
S113005020C000001EC000001CC0000011241FBEF0
S1130060CFEFD4E0DEBFCDBF11E0A0E0B1E0E2E825
S1130070F6E002C005900D92A831B107D9F723E04C
S1130080A8E1B1E001C01D92AE33B207E1F702D19D
S1130090F6C2B6CFE9EFF0E0908181E08927808352
S11300A00895E1E6F0E080E880831082089580EC12
S11300B08093E40087EB8093E50087E08093E6007B
S11300C08FE08093E70008958DE08093810082E4BF
S11300D09FE0909389008093880082E080936F0072
S11300E01092850010928400089580E88DBB80935F
S11300F06C0085B90895AB01805360FF03C074E0C0
S1130100AFE002C070E0A0EFE82FF0E0EE0FFF1FB9
S1130110E050FF4F20813181FA01FF230CF4319626
S1130120F595E795E451FF4FAF014C5E5F4FC90170
S11301308F709927072E02C0880F991F0A94E2F73F
S113014090819A23892B8083329522952F702327BF
S11301503F7023273596E417F50749F708958F92E2
S11301609F92AF92BF92CF92DF92EF92FF924B0198
S11301705C0185E088169104A104B10418F180FEA5
S113018024C0C12CD12C76016894C1F809C0C501E2
S1130190B401A7019601DBD1672B682B692BC1F051
S11301A08FEFC81AD80AE80AF80AA7019601C7010E
S11301B0B601BED1681579058A059B0540F381E037
S11301C090E008C081E090E005C080E090E002C0CB
S11301D080E090E0FF90EF90DF90CF90BF90AF90E1
S11301E09F908F9008958F929F92AF92BF92CF92DB
S11301F0DF92EF92FF92CF93DF934B015C01EA0110
S113020024E630E040E050E0C4D10F2EFAE0CF2ED7
S1130210D12CE12CF12CF02DA7019601BAD1BE010D
S113022080E3820F68DF2196C501B401A70196011E
S1130230B0D1862FBE01805D5EDFDF91CF91FF904C
S1130240EF90DF90CF90BF90AF909F908F900895E4
S11302506091180170E080E090E044E050E0C3DF7A
S1130260809118018F5F809318010895EC01C12CCF
S1130270D12C7601C394C701B60171DF892B21F01B
S1130280AE01C701B601AFDF8FEFC81AD80AE80A7A
S1130290F80AF1CF06DF0BDF28DF16DF60E070E03D
S11302A088E291E0AFD060E070E08AE490E0AAD008
S11302B080E090E0DBDF1F920F920FB60F921124C3
S11302C02F933F934F935F936F937F938F939F935A
S11302D0AF93BF93EF93FF9360E070E08AE490E004
S11302E091D0FF91EF91BF91AF919F918F917F91A9
S11302F06F915F914F913F912F910F900FBE0F908F
S11303001F9018951F920F920FB60F9211242F93DE
S11303103F934F935F936F937F938F939F93AF9389
S1130320BF93EF93FF931F9906C060E070E088E2EB
S113033091E068D042D0FF91EF91BF91AF919F912E
S11303408F917F916F915F914F913F912F910F907A
S11303500FBE0F901F901895DC01ED91FC91119741
S1130360309739F4E4EFF0E0908181E089278083CD
S1130370FFCF248135812D933C93CF010895CF93F2
S1130380DF9300D0CDB7DEB79A83898380911401BF
S113039090911501069632D1892B51F489819A8165
S11303A0909315018093140161E070E0069646D1A4
S11303B00F900F90DF91CF910895F89480911B01D5
S11303C090911C01892BE1F08BE191E0C5DFE09174
S11303D01401F091150120911B0130911C0121158C
S11303E0310539F415821482F0931C01E0931B014A
S11303F006C0F0931C01E0931B0135832483BFDF07
S113040078940895EF92FF920F931F93CF93DF9305
S113041000D0CDB7DEB77C018B01F894809119012F
S113042090911A01892BE1F487EF91E090938F0169
S113043080938E0184E692E09093FC018093FB010B
S113044081ED92E090936902809368021092D60243
S11304501092D50281E090E090931A0180931901E3
S113046086E191E079DF9A838983FC01F182E0825D
S113047013830283158214820696C0D0019751F526
S11304807894A0911401B0911501ED91FC9111970C
S113049012968D919C9113970995F8948BE191E0B4
S11304A05BDFE0911401F091150120911601309168
S11304B017012115310539F415821482F0931701BF
S11304C0E093160106C0F0931701E09316013583FB
S11304D0248355DFE981FA81369689819A81875987
S11304E09F4F918B808B938B828B80911B0190917A
S11304F01C01009749F4E981FA8115821482F09372
S11305001C01E0931B0109C029813A8130931C012D
S113051020931B01F9019583848378944EDF0F9017
S11305200F90DF91CF911F910F91FF90EF9008955D
S1130530DB018F939F9349D0BF91AF91A29F800D10
S1130540911DA39F900DB29F900D11240895A1E2D7
S11305501A2EAA1BBB1BFD010DC0AA1FBB1FEE1F39
S1130560FF1FA217B307E407F50720F0A21BB30B84
S1130570E40BF50B661F771F881F991F1A9469F700
S113058060957095809590959B01AC01BD01CF015C
S11305900895052E97FB16F400940FD057FD05D04F
S11305A0D6DF07FC02D046F408C05095409530953C
S11305B021953F4F4F4F5F4F0895909580957095CB
S11305C061957F4F8F4F9F4F089509D0A59F900D40
S11305D0B49F900DA49F800D911D11240895A29F96
S11305E0B001B39FC001A39F700D811D1124911D03
S11305F0B29F700D811D1124911D0895DC012D926F
S11306003D924D925D926D927D928D929D92AD92AE
S1130610BD92CD92DD92ED92FD920D931D93CD93FB
S1130620DD93FF91EF918DB78D938EB78D938FB737
S11306308D93ED93FD93882799270994DC01CB01D1
S113064081309105811D2D903D904D905D906D9070
S11306507D908D909D90AD90BD90CD90DD90ED906E
S1130660FD900D911D91CD91DD91ED91FD910D9038
S1130670F894FEBF0FBEEDBFED91FD910994F8947F
S1050680FFCFA6
S113068251151001111E111B500B411B411F110169
S10B0692511F511B1D018A01D7
S9030000FC
