S00C00004C6162322E73726563D7
S11300002DC0000046C0000044C000006DC20000C6
S113001040C000003EC000003CC0000089C2000097
S113002038C0000036C0000034C0000032C00000F8
S113003030C000002EC000002CC000002AC0000008
S113004028C0000026C0000024C0000022C0000018
S113005020C000001EC000001CC0000011241FBEF0
S1130060CFEFD4E0DEBFCDBF11E0A0E0B1E0E8EC1B
S1130070F6E002C005900D92A831B107D9F723E04C
S1130080A8E1B1E001C01D92A334B207E1F7EAD0C0
S113009019C3B6CFE1E6F0E080E8808310820895CA
S11300A080EC8093E40087EB8093E50087E0809305
S11300B0E6008FE08093E7000895AB01805360FF72
S11300C003C074E0AFE002C070E0A0EFE82FF0E0FE
S11300D0EE0FFF1FE050FF4F20813181FA01FF2313
S11300E00CF43196F595E795E451FF4FAF014C5E62
S11300F05F4FC9018F709927072E02C0880F991F7F
S11301000A94E2F790819A23892B80833295229571
S11301102F7023273F7023273596E417F50749F7F7
S113012008958F929F92AF92BF92CF92DF92EF92F7
S1130130FF924B015C0185E088169104A104B1048F
S113014018F180FE24C0C12CD12C76016894C1F82A
S113015009C0C501B401A70196011CD2672B682B05
S1130160692BC1F08FEFC81AD80AE80AF80AA70168
S11301709601C701B601FFD1681579058A059B056B
S113018040F381E090E008C081E090E005C080E0A9
S113019090E002C080E090E0FF90EF90DF90CF907D
S11301A0BF90AF909F908F9008958F929F92AF923F
S11301B0BF92CF92DF92EF92FF92CF93DF934B01E6
S11301C05C01EA018EE191E0A5D0D0931D01C093BA
S11301D01C01C501B40124E630E040E050E0FCD14C
S11301E00F2EFAE0CF2ED12CE12CF12CF02DA7010B
S11301F09601F2D1BE0180E3820F5FDFC0911C0142
S1130200D0911D012196D0931D01C0931C01C501FD
S1130210B401A7019601E0D1862FBE01805D4DDFB8
S11302208EE191E09CD0DF91CF91FF90EF90DF9031
S1130230CF90BF90AF909F908F900895EC01C12C08
S1130240D12C7601C394C701B6016BDF892B21F051
S1130250AE01C701B601A9DF8FEFC81AD80AE80AB0
S1130260F80AF1CF17DF1CDF60E070E08EE191E067
S1130270B0D083E090E0E2DFDC0115961C921E9280
S11302801497DB01ED91FC911197309721F48D9334
S11302909C930895F9012481358121153105D1F705
S11302A0958384830895CF93DF9300D0CDB7DEB7D1
S11302B09A83898380911401909115010696C1D186
S11302C0892B51F489819A819093150180931401AB
S11302D061E070E00696D5D10F900F90DF91CF9139
S11302E00895F8946AE171E08091140190911501E8
S11302F0C3DF80911A0190911B01009751F0FC011A
S11303002481358130931B0120931A01CCDF78942A
S11303100895FFCFF894FC0120813181232B29F427
S113032021E030E03183208318C0BC016E5F7F4F31
S113033080911401909115019FDF80911A01909191
S11303401B01009749F0FC012481358130931B0186
S113035020931A01A8DF01C0FFCF78940895CF93AA
S1130360DF93F894FC0122813381232B19F4118249
S1130370108214C0EC016AE171E080911401909143
S113038015017ADF8A819B81009739F0FC01248171
S113039035813B832A8387DF01C0FFCF7894DF91C7
S11303A0CF9108958DE08093810087E891E0909348
S11303B089008093880082E080936F00109285000A
S11303C010928400089580E88DBB80936C0085B9F9
S11303D00895EF92FF920F931F93CF93DF9300D072
S11303E0CDB7DEB77C018B01F89480911801909110
S11303F01901892BF1F48CEF91E09093940180938F
S1130400930189E692E0909301028093000286EDC5
S113041092E090936E0280936D021092DB02109230
S1130420DA02D1DFBFDF81E090E09093190180937D
S1130430180180911601909117019A83898300977E
S113044099F0FC01848195819093170180931601A2
S1130450F182E0821383028315821482CF0106960F
S1130460F0D0019739F501C0FFCF7894A091140121
S1130470B0911501ED91FC91119712968D919C917B
S113048013970995F89466E171E0809114019091B5
S11304901501F2DE80911A0190911B01009749F039
S11304A0FC012481358130931B0120931A01FBDE6A
S11304B001C0FFCFE981FA81369689819A818759F3
S11304C09F4F918B808B938B828B6AE171E0898142
S11304D09A81D2DE78940F900F90DF91CF911F9183
S11304E00F91FF90EF9008951F920F920FB60F9205
S11304F011242F933F934F935F936F937F938F9325
S11305009F93AF93BF93EF93FF931F9BEADEFF91FB
S1130510EF91BF91AF919F918F917F916F915F9177
S11305204F913F912F910F900FBE0F901F901895F0
S11305301F920F920FB60F9211242F933F934F9354
S11305405F936F937F938F939F93AF93BF93EF9337
S1130550FF93C7DEFF91EF91BF91AF919F918F9170
S11305607F916F915F914F913F912F910F900FBEAB
S11305700F901F901895DB018F939F9349D0BF91E3
S1130580AF91A29F800D911DA39F900DB29F900DDE
S113059011240895A1E21A2EAA1BBB1BFD010DC054
S11305A0AA1FBB1FEE1FFF1FA217B307E407F5071F
S11305B020F0A21BB30BE40BF50B661F771F881FFB
S11305C0991F1A9469F760957095809590959B0191
S11305D0AC01BD01CF010895052E97FB16F40094DC
S11305E00FD057FD05D0D6DF07FC02D046F408C073
S11305F050954095309521953F4F4F4F5F4F08954B
S113060090958095709561957F4F8F4F9F4F08957A
S113061009D0A59F900DB49F900DA49F800D911DAE
S113062011240895A29FB001B39FC001A39F700D30
S1130630811D1124911DB29F700D811D1124911DE6
S11306400895DC012D923D924D925D926D927D92C2
S11306508D929D92AD92BD92CD92DD92ED92FD92DE
S11306600D931D93CD93DD93FF91EF918DB78D93F2
S11306708EB78D938FB78D93ED93FD93882799272C
S11306800994DC01CB0181309105811D2D903D90B1
S11306904D905D906D907D908D909D90AD90BD90AE
S11306A0CD90DD90ED90FD900D911D91CD91DD915A
S11306B0ED91FD910D90F894FEBF0FBEEDBFED914D
S10B06C0FD910994F894FFCFA9
S11306C851151001111E111B500B411B411F110123
S10B06D8511F511B22018F0187
S9030000FC
