S00C00004C6162322E73726563D7
S11300002DC0000046C0000044C0000042C00000F3
S113001040C000003EC000003CC000003AC00000E8
S113002038C0000036C0000034C0000032C00000F8
S113003030C000002EC000002CC000002AC0000008
S113004028C0000026C0000024C0000022C0000018
S113005020C000001EC000001CC0000011241FBEF0
S1130060CFEFD4E0DEBFCDBF11E0A0E0B1E0E0E42B
S1130070F5E002C005900D92A831B107D9F723E04D
S1130080A8E1B1E001C01D92AD33B207E1F7D7D0CA
S113009055C2B6CFE1E6F0E080E88083108208958F
S11300A080EC8093E40087EB8093E50087E0809305
S11300B0E6008FE08093E7000895AB01805360FF72
S11300C003C074E0AFE002C070E0A0EFE82FF0E0FE
S11300D0EE0FFF1FE050FF4F20813181FA01FF2313
S11300E00CF43196F595E795E451FF4FAF014C5E62
S11300F05F4FC9018F709927072E02C0880F991F7F
S11301000A94E2F790819A23892B80833295229571
S11301102F7023273F7023273596E417F50749F7F7
S113012008958F929F92AF92BF92CF92DF92EF92F7
S1130130FF924B015C0185E088169104A104B1048F
S113014018F180FE24C0C12CD12C76016894C1F82A
S113015009C0C501B401A701960158D1672B682BCA
S1130160692BC1F08FEFC81AD80AE80AF80AA70168
S11301709601C701B6013BD1681579058A059B052F
S113018040F381E090E008C081E090E005C080E0A9
S113019090E002C080E090E0FF90EF90DF90CF907D
S11301A0BF90AF909F908F9008958F929F92AF923F
S11301B0BF92CF92DF92EF92FF92CF93DF934B01E6
S11301C05C01EA0124E630E040E050E041D10F2E2A
S11301D0FAE0CF2ED12CE12CF12CF02DA7019601C1
S11301E037D1BE0180E3820F68DF2196C501B401D7
S11301F0A70196012DD1862FBE01805D5EDFDF91C0
S1130200CF91FF90EF90DF90CF90BF90AF909F90F1
S11302108F900895EC01C12CD12C7601C394C701B1
S1130220B6017FDF892B29F0AE01C701B601BDDF1E
S1130230C5D08FEFC81AD80AE80AF80AF0CF2ADF27
S11302402FDF60E070E08AE091E038D083E090E056
S1130250E1DFDC0115961C921E921497DB01ED91EF
S1130260FC911197309721F48D939C930895F90193
S11302702481358121153105D1F79583848308952F
S1130280CF93DF9300D0CDB7DEB79A838983809173
S1130290140190911501069610D1892B51F489818E
S11302A09A81909315018093140161E070E00696A1
S11302B024D10F900F90DF91CF910895CF93DF93C6
S11302C000D0CDB7DEB7F894209118013091190110
S11302D0232BE1F426EF31E030938E0120938D013E
S11302E023E632E03093FB012093FA0120ED32E063
S11302F030936802209367021092D5021092D402C0
S113030021E030E030931901209318012091160167
S1130310309117013A832983232BA1F0E981FA81D3
S11303204481558150931701409316019183808332
S11303307383628315821482CF010696BED001971F
S113034039F501C0FFCF7894A0911401B091150143
S1130350ED91FC91119712968D919C9113970995AB
S1130360F89466E171E0809114019091150171DFB8
S113037080911A0190911B01009749F0FC0124819E
S1130380358130931B0120931A017ADF01C0FFCF1E
S1130390E981FA81369689819A8187599F4F918B99
S11303A0808B938B828B6AE171E089819A8151DF22
S11303B078940F900F90DF91CF910895F8946AE1AB
S11303C071E0809114019091150143DF80911A012D
S11303D090911B01009751F0FC01248135813093E9
S11303E01B0120931A014CDF78940895FFCFDB01A1
S11303F08F939F9349D0BF91AF91A29F800D911D80
S1130400A39F900DB29F900D11240895A1E21A2E7E
S1130410AA1BBB1BFD010DC0AA1FBB1FEE1FFF1FA4
S1130420A217B307E407F50720F0A21BB30BE40BF4
S1130430F50B661F771F881F991F1A9469F760953B
S11304407095809590959B01AC01BD01CF010895F5
S1130450052E97FB16F400940FD057FD05D0D6DF78
S113046007FC02D046F408C050954095309521957C
S11304703F4F4F4F5F4F08959095809570956195CC
S11304807F4F8F4F9F4F089509D0A59F900DB49F24
S1130490900DA49F800D911D11240895A29FB00179
S11304A0B39FC001A39F700D811D1124911DB29FA4
S11304B0700D811D1124911D0895DC012D923D9232
S11304C04D925D926D927D928D929D92AD92BD9270
S11304D0CD92DD92ED92FD920D931D93CD93DD931C
S11304E0FF91EF918DB78D938EB78D938FB78D93C9
S11304F0ED93FD93882799270994DC01CB01813082
S11305009105811D2D903D904D905D906D907D9055
S11305108D909D90AD90BD90CD90DD90ED90FD902F
S11305200D911D91CD91DD91ED91FD910D90F8947A
S1130530FEBF0FBEEDBFED91FD910994F894FFCF7E
S113054051151001111E111B500B411B411F1101AC
S10B0550511F511B1C0189011C
S9030000FC
