S00C00006C6162342E73726563B5
S11300002DC0000090C20000F9C2000062C30000CD
S1130010CBC3000034C400003DC000000C94080BA6
S113002039C000000C94B60A95C40000FEC4000058
S113003067C50000D0C5000039C60000A2C6000094
S11300400BC7000074C70000DDC700000C946D08E6
S11300500C94D8080C9443090C94AE0911241FBEC7
S1130060CFEFD4E0DEBFCDBF11E0A0E0B1E0E6E425
S1130070FDE102C005900D92A833B107D9F724E041
S1130080A8E3B1E001C01D92AD38B207E1F735D164
S11300900C94A10EB5CF639907C080E091E09093D2
S11300A04301809342010895629906C08EE091E075
S11300B090934301809342010895749A0895CF92D6
S11300C0DF92EF92FF920F931F93FC011EB880857D
S11300D09185892BB9F12EB181E090E0058402C0AD
S11300E0880F991F0A94E2F782278EB9608571857B
S11300F084EF91E00E94240E2DE730E0DB010E94A2
S1130100370E8B019C01992324F40D5F1F4F2F4F51
S11301103F4FC901B8019595879577956795959552
S1130120879577956795C12CD12C0F2EFFE5EF2E7F
S1130130F0E0FF2EF02D8F0120E030E0A9010E94B5
S1130140BB0B1EC02EB181E090E0058402C0880F75
S1130150991F0A94E2F7809582238EB9C12CD12C81
S11301600F2EFFE5EF2EF0E0FF2EF02D8F0120E0A3
S113017030E0A90162E17AE780E090E00E94BB0BE5
S11301801F910F91FF90EF90DF90CF900895E1E6DB
S1130190F0E080E880831082089580EC8093E4008E
S11301A087EB8093E50087E08093E6008FE08093FF
S11301B0E70008958DE08093810082E49FE09093AE
S11301C089008093880082E080936F0010928500FC
S11301D01092840008958DB3806C8DBBECE6F0E042
S11301E0808180688083808180648083ABE6B0E016
S11301F08C9184608C938C9188608C9380818061D5
S113020080832F9A2E9A739A729A2C9A0895AB012E
S1130210F894805360FF03C074E0AFE002C070E064
S1130220A0EFE82FF0E0EE0FFF1FEC5DFE4F208102
S11302303181FA01FF230CF43196F595E795E451E9
S1130240FF4FAF014C5E5F4FC9018F709927072E96
S113025002C0880F991F0A94E2F790819A23892B90
S11302608083329522952F7023273F70232735965C
S1130270E417F50749F7789408951F93CF93DF9314
S1130280EB012AE030E0B9010E94240E182FCB01C3
S1130290B9010E94240EBE01805DB9DFBE016F5F0B
S11302A07F4F80E3810FB3DFDF91CF911F910895DA
S11302B0DC01ED91FC911F9909C080859185181688
S11302C01906ACF401979187808711C01E9909C063
S11302D0808591858336910554F4019691878087B2
S11302E006C01C9904C01092430110924201628519
S11302F070E080859185C1CF0895CF92DF92EF920F
S1130300FF920F931F93789442DF47DF64DF52DF3D
S1130310EEE0F1E0628570E080859185AEDFE0E09B
S1130320F1E0628570E080859185A7DF42E068E5B1
S113033071E082E491E00E94F30D41E06BE470E02F
S113034082E491E00E94F30D82E191E00E94D60DD7
S1130350C12CD12C0F2EFFE5EF2EF0E0FF2EF02D57
S11303600EE011E020E030E0A90169E07DE380E0E7
S113037090E00E94BB0B84E091E00E94D60D40E027
S113038050E06DE570E082E491E00E940D0E1F9153
S11303900F91FF90EF90DF90CF900895CF93DF936C
S11303A000D000D0CDB7DEB78DE292E02DE033E08F
S11303B0FC01709791838083409682179307C1F75D
S11303C01092FE021092FD02E8E6F1E085E891E069
S11303D09183808382EA91E0968F858FAFEBB1E0C1
S11303E0B3AFA2AF1D921C92FA83E983E9E6F3E06E
S11303F0FC83EB8389819A8106960E94600E8B812F
S11304009C81E981FA81978B868B918F808F8AE614
S11304109DE0948F838F158214827D96FA83E983FD
S1130420EB81FC81E05AFF4FFC83EB8389819A8145
S11304308C5D9140F9F6E0E0F2E0118210821582C1
S1130440148213821282E1E6F0E080E88083108255
S1130450109285001092840084E08093810081E0F2
S113046080936F000F900F900F900F90DF91CF91BA
S11304700895CF93DF9300D0CDB7DEB79A838983F5
S113048080911C0190911D0106960E94600E892B9B
S113049059F489819A8190931D0180931C0161E034
S11304A070E006960E94800E0F900F90DF91CF911E
S11304B008950F931F93CF93DF93C0911E01D091A2
S11304C01F01AA81BB81E0914001F0914101309765
S11304D029F180912001909121010097F9F0109762
S11304E079F0468157816085718516960D911D912D
S11304F02D913C911997401B510B620B730B72F4B5
S1130500FC01208131813093210120932001D1838A
S1130510C08390931F0180931E01ABDFDF91CF91C5
S11305201F910F9108951F920F920FB60F921124ED
S11305302F933F934F935F936F937F938F939F93E7
S1130540AF93BF93EF93FF9320913801309139011A
S11305504091840050918500C901032E000CAA0B20
S1130560BB0BDC019927882760E070E0842B952B76
S1130570A62BB72B80933A0190933B01A0933C01A7
S1130580B0933D01B09B1BC0409184005091850005
S1130590C9010196092E000CAA0BBB0BDC0199279B
S11305A0882760E070E0842B952BA62BB72B8093D3
S11305B03A0190933B01A0933C01B0933D01E0913B
S11305C0DC01F091DD01309739F060E070E080915A
S11305D044019091450109956CDFFF91EF91BF9122
S11305E0AF919F918F917F916F915F914F913F91C7
S11305F02F910F900FBE0F901F9018951F920F927E
S11306000FB60F9211242F933F934F935F936F93E1
S11306107F938F939F93AF93BF93EF93FF93209117
S11306203801309139014091840050918500C9010D
S1130630032E000CAA0BBB0BDC019927882760E072
S113064070E0842B952BA62BB72B80933A019093C3
S11306503B01A0933C01B0933D01B09B1BC0409172
S1130660840050918500C9010196092E000CAA0B43
S1130670BB0BDC019927882760E070E0842B952B65
S1130680A62BB72B80933A0190933B01A0933C0196
S1130690B0933D01E091DE01F091DF01309739F034
S11306A061E070E08091460190914701099501DF76
S11306B0FF91EF91BF91AF919F918F917F916F9136
S11306C05F914F913F912F910F900FBE0F901F900C
S11306D018951F920F920FB60F9211242F933F93E8
S11306E04F935F936F937F938F939F93AF93BF9336
S11306F0EF93FF93209138013091390140918400A8
S113070050918500C901032E000CAA0BBB0BDC0120
S11307109927882760E070E0842B952BA62BB72BB4
S113072080933A0190933B01A0933C01B0933D0127
S1130730B09B1BC04091840050918500C901019673
S1130740092E000CAA0BBB0BDC019927882760E05B
S113075070E0842B952BA62BB72B80933A019093B2
S11307603B01A0933C01B0933D01E091E001F09185
S1130770E101309739F062E070E080914801909196
S11307804901099596DEFF91EF91BF91AF919F9139
S11307908F917F916F915F914F913F912F910F9026
S11307A00FBE0F901F9018951F920F920FB60F92C5
S11307B011242F933F934F935F936F937F938F9362
S11307C09F93AF93BF93EF93FF93209138013091A0
S11307D039014091840050918500C901032E000C19
S11307E0AA0BBB0BDC019927882760E070E0842BFF
S11307F0952BA62BB72B80933A0190933B01A093A2
S11308003C01B0933D01B09B1BC0409184005091CA
S11308108500C9010196092E000CAA0BBB0BDC0153
S11308209927882760E070E0842B952BA62BB72BA3
S113083080933A0190933B01A0933C01B0933D0116
S1130840E091E201F091E301309739F063E070E068
S113085080914A0190914B0109952BDEFF91EF9114
S1130860BF91AF919F918F917F916F915F914F91C4
S11308703F912F910F900FBE0F901F9018951F92CC
S11308800F920FB60F9211242F933F934F935F93C0
S11308906F937F938F939F93AF93BF93EF93FF9344
S11308A020913801309139014091840050918500A4
S11308B0C901032E000CAA0BBB0BDC019927882766
S11308C060E070E0842B952BA62BB72B80933A0124
S11308D090933B01A0933C01B0933D01B09B1BC09E
S11308E04091840050918500C9010196092E000CA5
S11308F0AA0BBB0BDC019927882760E070E0842BEE
S1130900952BA62BB72B80933A0190933B01A09390
S11309103C01B0933D01E091E401F091E501309791
S113092039F064E070E080914C0190914D0109959B
S1130930C0DDFF91EF91BF91AF919F918F917F9116
S11309406F915F914F913F912F910F900FBE0F9038
S11309501F9018951F920F920FB60F9211242F9388
S11309603F934F935F936F937F938F939F93AF9333
S1130970BF93EF93FF932091380130913901409157
S1130980840050918500C901032E000CAA0BBB0BF7
S1130990DC019927882760E070E0842B952BA62B37
S11309A0B72B80933A0190933B01A0933C01B09301
S11309B03D01B09B1BC04091840050918500C9014A
S11309C00196092E000CAA0BBB0BDC019927882782
S11309D060E070E0842B952BA62BB72B80933A0113
S11309E090933B01A0933C01B0933D01E091E6015B
S11309F0F091E701309739F065E070E080914E01A5
S1130A0090914F01099555DDFF91EF91BF91AF9101
S1130A109F918F917F916F915F914F913F912F9112
S1130A200F900FBE0F901F9018951F920F920FB644
S1130A300F9211242F933F934F935F936F937F9360
S1130A408F939F93AF93BF93EF93FF9320913801BC
S1130A50309139014091840050918500C901032EE1
S1130A60000CAA0BBB0BDC019927882760E070E01F
S1130A70842B952BA62BB72B80933A0190933B01A3
S1130A80A0933C01B0933D01B09B1BC040918400F6
S1130A9050918500C9010196092E000CAA0BBB0BCD
S1130AA0DC019927882760E070E0842B952BA62B26
S1130AB0B72B80933A0190933B01A0933C01B093F0
S1130AC03D01E091E801F091E901309739F066E0E9
S1130AD070E080915001909151010995EADCFF91F9
S1130AE0EF91BF91AF919F918F917F916F915F91A2
S1130AF04F913F912F910F900FBE0F901F9018951B
S1130B001F920F920FB60F9211242F933F934F937E
S1130B105F936F937F938F939F93AF93BF93EF9361
S1130B20FF93209138013091390140918400509114
S1130B308500C901032E000CAA0BBB0BDC0199270D
S1130B40882760E070E0842B952BA62BB72B80932D
S1130B503A0190933B01A0933C01B0933D01B09BBB
S1130B601BC04091840050918500C9010196092E53
S1130B70000CAA0BBB0BDC019927882760E070E00E
S1130B80842B952BA62BB72B80933A0190933B0192
S1130B90A0933C01B0933D01E091EA01F091EB0197
S1130BA0309739F067E070E08091520190915301E1
S1130BB009957FDCFF91EF91BF91AF919F918F9148
S1130BC07F916F915F914F913F912F910F900FBE45
S1130BD00F901F9018951F920F920FB60F92112429
S1130BE02F933F934F935F936F937F938F939F9331
S1130BF0AF93BF93EF93FF93209138013091390164
S1130C004091840050918500C901032E000CAA0B69
S1130C10BB0BDC019927882760E070E0842B952BBF
S1130C20A62BB72B80933A0190933B01A0933C01F0
S1130C30B0933D01B09B1BC040918400509185004E
S1130C40C9010196092E000CAA0BBB0BDC019927E4
S1130C50882760E070E0842B952BA62BB72B80931C
S1130C603A0190933B01A0933C01B0933D01E09184
S1130C70EC01F091ED01309739F068E070E080917B
S1130C80540190915501099514DCFF91EF91BF91A6
S1130C90AF919F918F917F916F915F914F913F9110
S1130CA02F910F900FBE0F901F9018951F920F92C7
S1130CB00FB60F9211242F933F934F935F936F932B
S1130CC07F938F939F93AF93BF93EF93FF93209161
S1130CD03801309139014091840050918500C90157
S1130CE0032E000CAA0BBB0BDC019927882760E0BC
S1130CF070E0842B952BA62BB72B80933A0190930D
S1130D003B01A0933C01B0933D01B09B1BC04091BB
S1130D10840050918500C9010196092E000CAA0B8C
S1130D20BB0BDC019927882760E070E0842B952BAE
S1130D30A62BB72B80933A0190933B01A0933C01DF
S1130D40B0933D01E091EE01F091EF01309739F05D
S1130D5069E070E080915601909157010995A9DBF3
S1130D60FF91EF91BF91AF919F918F917F916F917F
S1130D705F914F913F912F910F900FBE0F901F9055
S1130D8018951F920F920FB60F9211242F933F9331
S1130D904F935F936F937F938F939F93AF93BF937F
S1130DA0EF93FF93209138013091390140918400F1
S1130DB050918500C901032E000CAA0BBB0BDC016A
S1130DC09927882760E070E0842B952BA62BB72BFE
S1130DD080933A0190933B01A0933C01B0933D0171
S1130DE0B09B1BC04091840050918500C9010196BD
S1130DF0092E000CAA0BBB0BDC019927882760E0A5
S1130E0070E0842B952BA62BB72B80933A019093FB
S1130E103B01A0933C01B0933D01E091F001F091BE
S1130E20F101309739F06AE070E0809158019091B7
S1130E30590109953EDBFF91EF91BF91AF919F91CD
S1130E408F917F916F915F914F913F912F910F906F
S1130E500FBE0F901F9018951F920F920FB60F920E
S1130E6011242F933F934F935F936F937F938F93AB
S1130E709F93AF93BF93EF93FF93209138013091E9
S1130E8039014091840050918500C901032E000C62
S1130E90AA0BBB0BDC019927882760E070E0842B48
S1130EA0952BA62BB72B80933A0190933B01A093EB
S1130EB03C01B0933D01B09B1BC040918400509114
S1130EC08500C9010196092E000CAA0BBB0BDC019D
S1130ED09927882760E070E0842B952BA62BB72BED
S1130EE080933A0190933B01A0933C01B0933D0160
S1130EF0E091F201F091F301309739F06BE070E08A
S1130F0080915A0190915B010995D3DAFF91EF9199
S1130F10BF91AF919F918F917F916F915F914F910D
S1130F203F912F910F900FBE0F901F9018951F9215
S1130F300F920FB60F9211242F933F934F935F9309
S1130F406F937F938F939F93AF93BF93EF93FF938D
S1130F5020913801309139014091840050918500ED
S1130F60C901032E000CAA0BBB0BDC0199278827AF
S1130F7060E070E0842B952BA62BB72B80933A016D
S1130F8090933B01A0933C01B0933D01B09B1BC0E7
S1130F904091840050918500C9010196092E000CEE
S1130FA0AA0BBB0BDC019927882760E070E0842B37
S1130FB0952BA62BB72B80933A0190933B01A093DA
S1130FC03C01B0933D01E091F401F091F5013097BB
S1130FD039F06CE070E080915C0190915D010995BD
S1130FE068DAFF91EF91BF91AF919F918F917F91BB
S1130FF06F915F914F913F912F910F900FBE0F9082
S11310001F9018951F920F920FB60F9211242F93D1
S11310103F934F935F936F937F938F939F93AF937C
S1131020BF93EF93FF9320913801309139014091A0
S1131030840050918500C901032E000CAA0BBB0B40
S1131040DC019927882760E070E0842B952BA62B80
S1131050B72B80933A0190933B01A0933C01B0934A
S11310603D01B09B1BC04091840050918500C90193
S11310700196092E000CAA0BBB0BDC0199278827CB
S113108060E070E0842B952BA62BB72B80933A015C
S113109090933B01A0933C01B0933D01E091F60194
S11310A0F091F701309739F06DE070E080915E01C6
S11310B090915F010995FDD9FF91EF91BF91AF9197
S11310C09F918F917F916F915F914F913F912F915C
S11310D00F900FBE0F901F9018951F920F920FB68E
S11310E00F9211242F933F934F935F936F937F93AA
S11310F08F939F93AF93BF93EF93FF932091380106
S1131100309139014091840050918500C901032E2A
S1131110000CAA0BBB0BDC019927882760E070E068
S1131120842B952BA62BB72B80933A0190933B01EC
S1131130A0933C01B0933D01B09B1BC0409184003F
S113114050918500C9010196092E000CAA0BBB0B16
S1131150DC019927882760E070E0842B952BA62B6F
S1131160B72B80933A0190933B01A0933C01B09339
S11311703D01E091F801F091F901309739F06EE00A
S113118070E08091600190916101099592D9FF917D
S1131190EF91BF91AF919F918F917F916F915F91EB
S11311A04F913F912F910F900FBE0F901F90189564
S11311B01F920F920FB60F9211242F933F934F93C8
S11311C05F936F937F938F939F93AF93BF93EF93AB
S11311D0FF9320913801309139014091840050915E
S11311E08500C901032E000CAA0BBB0BDC01992757
S11311F0882760E070E0842B952BA62BB72B809377
S11312003A0190933B01A0933C01B0933D01B09B04
S11312101BC04091840050918500C9010196092E9C
S1131220000CAA0BBB0BDC019927882760E070E057
S1131230842B952BA62BB72B80933A0190933B01DB
S1131240A0933C01B0933D01E091FA01F091FB01C0
S1131250309739F06FE070E0809162019091630102
S1131260099527D9FF91EF91BF91AF919F918F91EC
S11312707F916F915F914F913F912F910F900FBE8E
S11312800F901F9018951F920F920FB60F92112472
S11312902F933F934F935F936F937F938F939F937A
S11312A0AF93BF93EF93FF932091380130913901AD
S11312B04091840050918500C901032E000CAA0BB3
S11312C0BB0BDC019927882760E070E0842B952B09
S11312D0A62BB72B80933A0190933B01A0933C013A
S11312E0B0933D01B09B1BC0409184005091850098
S11312F0C9010196092E000CAA0BBB0BDC0199272E
S1131300882760E070E0842B952BA62BB72B809365
S11313103A0190933B01A0933C01B0933D01E091CD
S1131320FC01F091FD01309739F060E170E08091AB
S11313306401909165010995BCD8FF91EF91BF912B
S1131340AF919F918F917F916F915F914F913F9159
S11313502F910F900FBE0F901F9018951F920F9210
S11313600FB60F9211242F933F934F935F936F9374
S11313707F938F939F93AF93BF93EF93FF932091AA
S11313803801309139014091840050918500C901A0
S1131390032E000CAA0BBB0BDC019927882760E005
S11313A070E0842B952BA62BB72B80933A01909356
S11313B03B01A0933C01B0933D01B09B1BC0409105
S11313C0840050918500C9010196092E000CAA0BD6
S11313D0BB0BDC019927882760E070E0842B952BF8
S11313E0A62BB72B80933A0190933B01A0933C0129
S11313F0B0933D01E091FE01F091FF01309739F087
S113140061E170E08091660190916701099551D87E
S1131410FF91EF91BF91AF919F918F917F916F91C8
S11314205F914F913F912F910F900FBE0F901F909E
S11314301895EF92FF920F931F93CF93DF937B0145
S1131440EB01A881B981109761F1FC010681178134
S11314502085318516964D915D916D917C911997FA
S1131460041715072607370714F41BC0DF01ED9195
S1131470FC911197309749F04681578160857185B9
S113148004171507260737078CF7EC01F983E8835F
S1131490109721F4F7019183808307C08D939C9367
S11314A004C0EC01B983A883F5CFDF91CF911F91DC
S11314B00F91FF90EF900895EF92FF920F931F9377
S11314C0CF93DF937B01EB01A881B981109761F180
S11314D0FC01028113812481358112964D915D9125
S11314E06D917C911597041715072607370714F497
S11314F01BC0DF01ED91FC911197309749F04281B7
S113150053816481758104171507260737078CF703
S1131510EC01F983E883109721F4F7019183808328
S113152007C08D939C9304C0EC01B983A883F5CFC5
S1131530DF91CF911F910F91FF90EF900895DC01FF
S1131540ED91FC911197309759F48FEF8093EC0053
S11315508093ED008093EE0081E083BF8895FDCFFA
S1131560208131812D933C93CF0108951F920F92D6
S11315700FB60F9211242F933F934F935F936F9362
S11315807F938F939F93EF93FF9380913801909172
S1131590390101969093390180933801E0913E011D
S11315A0F0913F01309701F142815381648175814B
S11315B086179707C9F4CA012091840030918500E9
S11315C0421B530B4130510529F4809184009091C2
S11315D0850001969093890080938800EFE6F0E0FF
S11315E080818260808305C0EFE6F0E080818D7F9A
S11315F08083FF91EF919F918F917F916F915F9184
S11316004F913F912F910F900FBE0F901F901895FF
S11316101F920F920FB60F921124CF92DF92EF9286
S1131620FF922F933F934F935F936F937F938F9387
S11316309F93AF93BF93EF93FF93C0903801D090E3
S113164039012091840030918500B0990FC00D2C90
S1131650000CEE08FF08D601992788276901E12CC0
S1131660F12CC82AD92AEA2AFB2A15C02091840021
S1131670309185008FEFC81AD80A0D2C000CEE08A3
S1131680FF08D601992788276901E12CF12CC82A83
S1131690D92AEA2AFB2AE0913E01F0913F013097D2
S11316A009F440C082819381A481B5818C199D097C
S11316B0AE09BF09181619061A061B06DCF18EE3DB
S11316C091E03DDF60E471E0B4DEE0913E01F09131
S11316D03F01309739F182819381A481B5818C19BE
S11316E09D09AE09BF09181619061A061B063CF710
S11316F021C09C014091840050918500841B950B6E
S1131700019731F420918400309185002F5F3F4F81
S11317103093890020938800EFE6F0E080818260B6
S1131720808305C0EFE6F0E080818D7F80830E9496
S113173059020CC082819381A481B5812091380122
S1131740309139012A173B0769F7D3CFFF91EF9105
S1131750BF91AF919F918F917F916F915F914F91C5
S11317603F912F91FF90EF90DF90CF900F900FBE9D
S11317700F901F9018953F924F925F926F927F92B5
S11317808F929F92AF92BF92CF92DF92EF92FF928D
S11317900F931F93CF93DF932B013C0149015A010F
S11317A08FB78078382EF89482E291E0C8DEEC019D
S11317B01B870A87FD86EC86DF86CE86332061F0A0
S11317C0E0911C01F0911D010280F381E02D8281E2
S11317D09381A481B58108C080913A0190913B0125
S11317E0A0913C01B0913D01480E591E6A1E7B1E1A
S11317F04A825B826C827D82181419041A041B04C9
S113180044F00F2E88248A94982CA82CFFE7BF2E2E
S1131810F02D840C951CA61CB71C8E829F82A88672
S1131820B98680913801909139014091840050919A
S11318308500B0990EC0092E000CAA0BBB0BDC016D
S11318409927882760E070E0842B952BA62BB72B73
S113185013C020918400309185000196092E000C5C
S1131860AA0BBB0BDC0199278827A90160E070E073
S1131870842B952BA62BB72B481A590A6A0A7B0A84
S11318801414150416041704A4F56EE371E0CE01D4
S113189013DEE0913E01F0913F01309721F1828106
S11318A09381A481B58120913801309139012A179F
S11318B03B07C9F49C014091840050918500841B2E
S11318C0950B019731F420918400309185002F5FAE
S11318D03F4F3093890020938800EFE6F0E0808149
S11318E08260808340C0EFE6F0E080818D7F80835A
S11318F03AC060E471E0CE019CDD3320B9F18091FF
S1131900200190912101009781F1E0911E01F09155
S11319101F01209140013091410102811381D901BD
S113192016964D915D916D917C911997D8011696FB
S11319300D911D912D913C911997401B510B620BF8
S1131940730B9AF4DC012D913C9111973093210192
S113195020932001ED93FC9390931F0180931E012B
S11319600E94390202C0332009F07894CE01DF913D
S1131970CF911F910F91FF90EF90DF90CF90BF9088
S1131980AF909F908F907F906F905F904F903F901B
S11319900895AF92BF92CF92DF92FF920F931F935D
S11319A0CF93DF938C016B015A018FB78078F82EA7
S11319B0F894D801CD91DC91209771F1AC81BD816F
S11319C0109731F0CD91DC91AC81BD811097D1F7A6
S11319D0E0911C01F0911D01CE17DF0721F0FF20DB
S11319E009F44DC007C0FF2009F44CC078948FEF70
S11319F09FEF66C0D80112968D919C911397009722
S1131A0009F446C0DC0115961C921E92149740C03E
S1131A10789480E090E054C080911C0190911D0165
S1131A20F80191838083FF2041F0D80112968D91B3
S1131A309C911397019709F07894B501C801F601B8
S1131A400995D82FC92F8FB7F894D80111961C92F5
S1131A501E9212968D919C9113978230910548F0B5
S1131A6013961C921E921297FC01158214820E94F6
S1131A703902FF2051F078948D2F9C2F21C08FEFD5
S1131A809FEF1EC08FEF9FEF1BC08D2F9C2F18C0A0
S1131A90D8011396FC93EE93129715830483CE0119
S1131AA00E943902E0911C01F0911D018281938111
S1131AB0892B09F4ADCFCF01F80191838083B5CF91
S1131AC0DF91CF911F910F91FF90DF90CF90BF9046
S1131AD0AF90089500911C0110911D0180E491E0E4
S1131AE02EDDEC01D80113969C938E931297789473
S1131AF04E855F856C857D858A859B854ADF8FB79A
S1131B00F894809122019091230199838883D09342
S1131B102301C0932201E0911E01F0911F01008175
S1131B201181E8012A813B81A0914001B0914101DA
S1131B301097C1F02115310569F216968D919D918A
S1131B400D90BC91A02DE9014E815F816885798556
S1131B50841B950BA60BB70B181619061A061B0641
S1131B600CF0B8CF10931F0100931E018091200147
S1131B709091210191838083F0932101E0932001CE
S1131B80A0911E01B0911F011496ED91FC9115973F
S1131B90309741F0A081B1811496ED91FC91159795
S1131BA03097C1F7CD010E94390294CF0FB607FEDA
S1131BB00CC0E0911C01F0911D010280F381E02D25
S1131BC0428153816481758108C040913A015091EA
S1131BD03B0160913C0170913D01FC0140835183C4
S1131BE06283738308954231B8F42FB7F89450E0B8
S1131BF0440F551FFA01EC5BFE4F91838083FA0179
S1131C00E452FE4F7183608341E050E0FC01538352
S1131C10428322230CF4789408958C01EB017A0119
S1131C208FB7F8940E94CE017894209721F0B701E1
S1131C30C801FE0109958FB7F8940E94590278945F
S1131C4081E083BF8895FDCF97FB072E16F400949F
S1131C5006D077FD08D011D007FC05D03EF490954E
S1131C6081959F4F0895709561957F4F089519D080
S1131C70B7FF0895821B930B0895AA1BBB1B51E168
S1131C8007C0AA1FBB1FA617B70710F0A61BB70BE8
S1131C90881F991F5A95A9F780959095BC01CD018D
S1131CA00895A29FB001B39FC001A39F700D811D31
S1131CB01124911DB29F700D811D1124911D089551
S1131CC0DC012D923D924D925D926D927D928D92AA
S1131CD09D92AD92BD92CD92DD92ED92FD920D93C7
S1131CE01D93CD93DD93FF91EF918DB78D938EB7B7
S1131CF08D938FB78D93ED93FD938827992709943E
S1131D00DC01CB0181309105811D2D903D904D90DA
S1131D105D906D907D908D909D90AD90BD90CD9097
S1131D20DD90ED90FD900D911D91CD91DD91ED91A2
S1131D30FD910D90F894FEBF0FBEEDBFED91FD91A6
S1091D400994F894FFCFA2
S1131D4600000000000000000100042E0006000050
S1131D560000000000001600002E0004000200022D
S1131D6668011D0251151001111E111B500B411B58
S10B1D76411F1101511F511B13
S9030000FC
