S00D00004C616233312E73726563A4
S11300002DC0000046C0000044C0000042C00000F3
S113001040C000003EC000003CC0000014C200000C
S113002038C0000036C0000034C0000032C00000F8
S113003030C000002EC000002CC000002AC0000008
S113004028C0000026C0000024C0000022C0000018
S113005020C000001EC000001CC0000011241FBEF0
S1130060CFEFD4E0DEBFCDBF11E0A0E0B1E0E4E02B
S1130070F6E002C005900D92A831B107D9F723E04C
S1130080A8E1B1E001C01D92AF33B207E1F7F1D0AE
S1130090B7C2B6CFC9EFD0E011E001D20A97ECF3B2
S11300A003D2888181278883F8CFE1E6F0E080E8F5
S11300B080831082089580EC8093E40087EB809322
S11300C0E50087E08093E6008FE08093E7000895E1
S11300D0AB01805360FF03C074E0AFE002C070E086
S11300E0A0EFE82FF0E0EE0FFF1FE050FF4F20815C
S11300F03181FA01FF230CF43196F595E795E4512B
S1130100FF4FAF014C5E5F4FC9018F709927072ED7
S113011002C0880F991F0A94E2F790819A23892BD1
S11301208083329522952F7023273F70232735969D
S1130130E417F50749F708958F929F92AF92BF9203
S1130140CF92DF92EF92FF924B015C0185E088161B
S11301509104A104B10418F180FE24C0C12CD12C57
S113016076016894C1F809C0C501B401A7019601DC
S1130170AFD1672B682B692BC1F08FEFC81AD80A4F
S1130180E80AF80AA7019601C701B60192D16815D9
S113019079058A059B0540F381E090E008C081E081
S11301A090E005C080E090E002C080E090E0FF9025
S11301B0EF90DF90CF90BF90AF909F908F90089575
S11301C08F929F92AF92BF92CF92DF92EF92FF9263
S11301D0CF93DF934B015C01EA0124E630E040E079
S11301E050E098D10F2EFAE0CF2ED12CE12CF12C37
S11301F0F02DA70196018ED1BE0180E3820F68DF46
S11302002196C501B401A701960184D1862FBE01B0
S1130210805D5EDFDF91CF91FF90EF90DF90CF9014
S1130220BF90AF909F908F900895C0E08C2F90E086
S1130230A0E0B0E044E050E0BC01CD01C1DF1F9973
S1130240FECFCF5F1F9BFECFF1CFEC01C12CD12C91
S11302507601C394C701B6016FDF892B21F0AE018B
S1130260C701B601ADDF8FEFC81AD80AE80AF80A49
S1130270F1CF1BDF20DF80E885B960E070E085E125
S113028091E06FD060E070E08AE490E06AD080E0B2
S113029090E0DBDFDC0115961C921E921497DB01C3
S11302A0ED91FC911197309721F48D939C930895CF
S11302B0F9012481358121153105D1F79583848392
S11302C00895DC01ED91FC911197309739F4E4EF36
S11302D0F0E0908181E089278083FFCF24813581FC
S11302E02D933C93CF010895CF93DF9300D0CDB7E6
S11302F0DEB79A8389838091140190911501069643
S11303003ED1892B51F489819A8190931501809370
S1130310140161E070E0069652D10F900F90DF91C6
S1130320CF910895F8946CE171E08091140190915B
S11303301501B0DF8CE191E0C4DFD6DF7894089535
S11303408DE08093810087E891E090938900809309
S1130350880082E080936F001092850010928400E0
S11303600895EF92FF920F931F93CF93DF9300D0E2
S1130370CDB7DEB77C018B01F89480911A0190917E
S11303801B01892BE9F488EF91E09093900180930D
S11303908F0185E692E09093FD018093FC0182ED4C
S11303A092E090936A02809369021092D7021092AD
S11303B0D602C6DF81E090E090931B0180931A017E
S11303C086E191E07EDF9A838983FC01F182E082F9
S11303D013830283158214820696D1D00197C9F43F
S11303E07894A0911401B0911501ED91FC911197AD
S11303F012968D919C9113970995F89466E171E09A
S1130400809114019091150145DF8CE191E059DF51
S11304106BDFE981FA81369689819A8187599F4FEA
S1130420918B808B938B828B6CE171E089819A81B3
S113043031DF78940F900F90DF91CF911F910F913E
S1130440FF90EF9008951F920F920FB60F92112410
S11304502F933F934F935F936F937F938F939F93C8
S1130460AF93BF93EF93FF9380911801909119017B
S11304700196909319018093180154DFFF91EF9135
S1130480BF91AF919F918F917F916F915F914F91A8
S11304903F912F910F900FBE0F901F901895809150
S11304A018019091190108951092190110921801E0
S11304B00895DB018F939F9349D0BF91AF91A29F81
S11304C0800D911DA39F900DB29F900D112408954E
S11304D0A1E21A2EAA1BBB1BFD010DC0AA1FBB1F44
S11304E0EE1FFF1FA217B307E407F50720F0A21BB6
S11304F0B30BE40BF50B661F771F881F991F1A9423
S113050069F760957095809590959B01AC01BD014C
S1130510CF010895052E97FB16F400940FD057FDD4
S113052005D0D6DF07FC02D046F408C050954095AC
S1130530309521953F4F4F4F5F4F0895909580958B
S1130540709561957F4F8F4F9F4F089509D0A59F58
S1130550900DB49F900DA49F800D911D11240895BA
S1130560A29FB001B39FC001A39F700D811D1124F0
S1130570911DB29F700D811D1124911D0895DC0100
S11305802D923D924D925D926D927D928D929D92AF
S1130590AD92BD92CD92DD92ED92FD920D931D939D
S11305A0CD93DD93FF91EF918DB78D938EB78D939E
S11305B08FB78D93ED93FD93882799270994DC01D8
S11305C0CB0181309105811D2D903D904D905D9022
S11305D06D907D908D909D90AD90BD90CD90DD906F
S11305E0ED90FD900D911D91CD91DD91ED91FD91D9
S11305F00D90F894FEBF0FBEEDBFED91FD910994EF
S1070600F894FFCF98
S113060451151001111E111B500B411B411F1101E7
S10B0614511F511B1E018B0153
S9030000FC
