S00C00006C6162342E73726563B5
S11300002DC00000BFC5000028C6000091C6000036
S1130010FAC6000063C700003DC000000C94370E10
S113002039C000000C94E50DC4C700000C944408CA
S11300300C94AF080C941A090C9485090C94F009DB
S11300400C945B0A0C94C60A0C94310B0C949C0B14
S11300500C94070C0C94720C0C94DD0C11241FBE30
S1130060CFEFD4E0DEBFCDBF11E0A0E0B1E0EAEF16
S1130070F3E202C005900D92A835B107D9F724E048
S1130080A8E5B1E001C01D92AB3AB207E1F7FBD39A
S11300900C94FB11B5CF80EC8093E40087EB809344
S11300A0E50087E08093E6008FE08093E700089501
S11300B08DB3806C8DBBECE6F0E08081806D808335
S11300C085B1806D85B9EBE6F0E080818C6080833A
S11300D08EB18C608EB90895AB01F894805360FFA3
S11300E003C074E0AFE002C070E0A0EFE82FF0E0DE
S11300F0EE0FFF1FEC5BFE4F20813181FA01FF23DD
S11301000CF43196F595E795E451FF4FAF014C5E41
S11301105F4FC9018F709927072E02C0880F991F5E
S11301200A94E2F790819A23892B80833295229551
S11301302F7023273F7023273596E417F50749F7D7
S1130140789408959C01F89480FD02C090EF01C05A
S11301509FE0F901FF230CF43196F595E795E451FE
S1130160FF4F9F012C5E3F4F80818923808335960A
S1130170E217F307C9F7789408951F93CF93DF9399
S1130180EB012AE030E0B9010E943611182FCB01AF
S1130190B9010E943611BE01805D9EDFBE016F5F12
S11301A07F4F80E3810F98DFDF91CF911F910895F6
S11301B0CF93DF93EC01C6DFCE010196C3DFDF915D
S11301C0CF9108950F931F93CF93DF93FC0127855D
S11301D03089232B11F4672B81F0EC010D851E85EA
S11301E040E050E063EE74E004960E94F80FB8011A
S11301F0C4DF81E090E0988B8F8780E090E0DF910E
S1130200CF911F910F910895CF93DF93EC018D85CA
S11302109E85CEDF188A1F8680E090E0DF91CF9123
S11302200895AF92BF92CF92DF92EF92FF920F9315
S11302301F93CF93DF93FC01238934892617370753
S113024009F04DC0EC015901FFEFAF1ABF0ABC8A97
S1130250AB8A20FF22C0C12CD12C0F2EF4E0EF2E4C
S1130260F1E0FF2EF02D8C0120E030E0A90160E0E8
S113027070E0CB010E94EA0E65010F2EF1E1EF2E32
S1130280F1E0FF2EF02D20E030E0A9016FE974E2E7
S113029080E090E00E94EA0E22C0CC24C394D12CCA
S11302A00F2EF2EEEF2EF0E0FF2EF02D8C0120E069
S11302B030E0A90160E070E0CB010E94EA0E650124
S11302C00F2EF1E1EF2EF1E0FF2EF02D20E030E0D3
S11302D0A90163E775E580E090E00E94EA0E80E002
S11302E090E0DF91CF911F910F91FF90EF90DF90FD
S11302F0CF90BF90AF900895FC01818992890895B1
S1130300FC01728B618B80E090E0089521E030E085
S1130310FC013587248780E090E008958F929F92B6
S1130320AF92BF92CF92DF92EF92FF920F931F93FF
S1130330CF93DF93FC01C680D780C616D70609F099
S11303406BC0EC015601FFEFAF1ABF0ABF82AE8249
S11303508C809D8084010C5F1F4F40E050E063EE71
S113036074E0C8010E94F80F8F3F2FEF920729F025
S11303702A853B852115310529F41B861A861F829F
S11303801E824CC06C01C20ED31E0F2EF7EEEF2E50
S1130390F4E0FF2EF02D20E030E0A90160E070E0F1
S11303A0CB010E94EA0EC12CD12C0F2EF2EEEF2EBF
S11303B0F0E0FF2EF02D840120E030E0A90160E0A0
S11303C070E0CB010E94EA0E28EA31E6D5010E94D2
S11303D06511AB01BC01405659476E4F7F4FDB019D
S11303E0CA011AF40396A11DB11DBC01CD01959556
S11303F08795779567959595879577956795650121
S11304000F2EFEE8EF2EF1E0FF2EF02D8E0120E0FE
S113041030E0A9010E94EA0E80E090E0DF91CF91E4
S11304201F910F91FF90EF90DF90CF90BF90AF900E
S11304309F908F900895CF92DF92EF92FF920F9347
S11304401F93CF93DF93EC0163994FC0EC81FD813F
S113045088899989E817F907C1F4148A138A0C81E9
S11304601D81CC24C394D12C0F2EF2EEEF2EF0E09C
S1130470FF2EF02D20E030E0A90160E070E0CB0118
S11304800E94EA0E1D821C8280C09D838C83EE85AF
S1130490FF85148A138A0E851F85CC24C394D12C1E
S11304A00F2EF2EEEF2EF0E0FF2EF02D20E030E0E4
S11304B0A90160E070E0CB010E94EA0EEC81FD81AD
S11304C0148A138A0C811D81C12CD12C0F2EF1E1C9
S11304D0EF2EF1E0FF2EF02D20E030E0A90160E0E6
S11304E070E0CB010E94EA0E50C062994EC0EC81CC
S11304F0FD818E859F85E817F907C1F4148A138A54
S11305000C811D81CC24C394D12C0F2EF2EEEF2E3E
S1130510F0E0FF2EF02D20E030E0A90160E070E073
S1130520CB010E94EA0E1D821C822FC09D838C8306
S1130530E889F989148A138A08891989CC24C3940F
S1130540D12C0F2EF2EEEF2EF0E0FF2EF02D20E056
S113055030E0A90160E070E0CB010E94EA0EEC817A
S1130560FD81148A138A0C811D81C12CD12C0F2E7C
S1130570F1E1EF2EF1E0FF2EF02D20E030E0A901B3
S113058060E070E0CB010E94EA0E80E090E0DF9131
S1130590CF911F910F91FF90EF90DF90CF9008952E
S11305A08F929F92AF92BF92CF92DF92EF92FF927F
S11305B00F931F93CF93DF93FC01A480B580A11404
S11305C0B10409F4FCC0EC014501F4E08F0E911C68
S11305D01F9933C0CC24CA94DC2C0F2EF9ECEF2ED7
S11305E0F4E0FF2EF02D840120E030E0A90160E06A
S11305F070E0CB010E94EA0E8FEF9FEF9B878A8702
S11306008E819F81892B09F0C6C081E090E09F8391
S11306108E83CC24C394D12C0F2EFEE8EF2EF1E070
S1130620FF2EF02D8E0120E030E0A90162E17AE78F
S113063080E090E00E94EA0EAEC01E9930C0CC2447
S1130640C394D12C0F2EF9ECEF2EF4E0FF2EF02DF5
S1130650840120E030E0A90160E070E0CB010E9459
S1130660EA0E81E090E09B878A878E819F81892BA7
S113067009F091C081E090E09F838E830F2EFEE805
S1130680EF2EF1E0FF2EF02D8E0120E030E0A901E5
S113069062E17AE780E090E00E94EA0E7CC01C9957
S11306A074C08C859D85892B09F489C01D861C86A0
S11306B0C12CD12C0F2EF6E8EF2EF1E0FF2EF02DF9
S11306C08E0120E030E0A90169E07DE380E090E064
S11306D00E94EA0E40E050E063EE74E0C4010E9420
S11306E0F80F892B49F540E050E06CE771E0C50153
S11306F00E94F80F6C010F2EF7EEEF2EF4E0FF2EA0
S1130700F02D840120E030E0A90160E070E0CB012D
S11307100E94EA0EC12CD12C0F2EF0E8EF2EF1E04E
S1130720FF2EF02D850120E030E0A90160E070E0AB
S1130730CB010E94EA0E2FC040E050E063EE74E06B
S1130740C4010E94F80F6C010F2EF0E8EF2EF1E0C7
S1130750FF2EF02D850120E030E0A90160E070E07B
S1130760CB010E94EA0EC12CD12C0F2EF7EEEF2EF6
S1130770F4E0FF2EF02D840120E030E0A90160E0D8
S113078070E0CB010E94EA0E06C01F9B04C01E9BB2
S113079002C01B861A86C12CD12C0F2EF2EEEF2E2E
S11307A0F0E0FF2EF02D850120E030E0A90160E0AB
S11307B070E0CB010E94EA0E80E090E000C0DF917F
S11307C0CF911F910F91FF90EF90DF90CF90BF904A
S11307D0AF909F908F900895CF92DF92EF92FF9207
S11307E00F931F93CC24C394D12C0F2EF2EEEF2E33
S11307F0F0E0FF2EF02D07E211E020E030E0A90147
S113080060E070E0CB010E94EA0EC12CD12C0F2EC7
S1130810FDE5EF2EF4E0FF2EF02D0BE211E020E0D9
S113082030E0A90160E070E0CB010E94EA0ECC2424
S1130830C394D12C0F2EF2EEEF2EF0E0FF2EF02D0C
S113084002E111E020E030E0A90160E070E0CB01BA
S11308500E94EA0EC12CD12C0F2EFDE5EF2EF4E000
S1130860FF2EF02D06E111E020E030E0A90160E068
S113087070E0CB010E94EA0E1F910F91FF90EF9060
S1130880DF90CF900895789406DC12DC42E060EDAE
S113089072E080E091E00E94051141E06BE172E0BA
S11308A080E091E00E94051140E050E06CEE73E0BE
S11308B080E090E00C941F110895CF92DF92EF92A4
S11308C0FF920F931F93CF93DF93EC018C819D8153
S11308D0892BA1F1EE81FF8181E090E0088402C0C0
S11308E0880F991F0A94E2F79081892780832C81CD
S11308F03D81032E000C440B550B60E271EA87E046
S113090090E00E944911ADE7B0E00E946B1120EA2B
S11309103FE040E050E00E944911CA01B901C12CF6
S1130920D12C0F2EFDE5EF2EF4E0FF2EF02D8E01DD
S113093020E030E0A9010E94EA0E20C0EE81FF8190
S113094081E090E0088402C0880F991F0A94E2F7BE
S11309508095908189238083C12CD12C0F2EFDE5B5
S1130960EF2EF4E0FF2EF02D8E0120E030E0A901FF
S113097062E17AE780E090E00E94EA0E80E090E095
S1130980DF91CF911F910F91FF90EF90DF90CF9067
S11309900895FC0124813581620F731F1616170612
S11309A01CF0158214820CC06436710534F023E601
S11309B030E0FC013583248303C0FC017583648328
S11309C080E090E00895FC01848195810895643667
S11309D0710534F023E630E0FC01358324830AC03A
S11309E01616170624F0FC011582148203C0FC01BC
S11309F07583648380E090E00895CF93DF9300D003
S1130A0000D0CDB7DEB78BE492E02BE233E0FC01FB
S1130A10709791838083409682179307C1F7109251
S1130A201C0310921B03E6E8F1E083EA91E0918352
S1130A30808380EC91E0968F858FADEDB1E0B3AF0C
S1130A40A2AF1D921C92FA83E983E7E8F3E0FC83EA
S1130A50EB8389819A8106960E94BA118B819C81CD
S1130A60E981FA81978B868B918F808F89E990E158
S1130A70948F838F158214827D96FA83E983EB81A8
S1130A80FC81E05AFF4FFC83EB8389819A818A5F62
S1130A909140F9F6EEE1F2E011821082158214829F
S1130AA013821282E1E6F0E080E8808310821092E3
S1130AB085001092840084E08093810081E080931B
S1130AC06F000F900F900F900F90DF91CF910895CA
S1130AD0CF93DF9300D0CDB7DEB79A83898380911B
S1130AE03C0190913D0106960E94BA11892B59F45C
S1130AF089819A8190933D0180933C0161E070E08B
S1130B0006960E94DA110F900F90DF91CF9108950D
S1130B100F931F93CF93DF93C0913E01D0913F0178
S1130B20AA81BB81E0916001F0916101309729F1C4
S1130B3080914001909141010097F9F0109779F06C
S1130B40468157816085718516960D911D912D9171
S1130B503C911997401B510B620B730B72F4FC010F
S1130B60208131813093410120934001D183C0839E
S1130B7090933F0180933E01ABDFDF91CF911F91B2
S1130B800F9108951F920F920FB60F9211242F9375
S1130B903F934F935F936F937F938F939F93AF9301
S1130BA0BF93EF93FF9320915801309159014091E5
S1130BB0840050918500C901032E000CAA0BBB0BC5
S1130BC0DC019927882760E070E0842B952BA62B05
S1130BD0B72B80935A0190935B01A0935C01B0936F
S1130BE05D01B09B1BC04091840050918500C901F8
S1130BF00196092E000CAA0BBB0BDC019927882750
S1130C0060E070E0842B952BA62BB72B80935A01C0
S1130C1090935B01A0935C01B0935D01E091FA01B4
S1130C20F091FB01309739F060E070E0809162014F
S1130C309091630109956CDFFF91EF91BF91AF91A2
S1130C409F918F917F916F915F914F913F912F91E0
S1130C500F900FBE0F901F9018951F920F920FB612
S1130C600F9211242F933F934F935F936F937F932E
S1130C708F939F93AF93BF93EF93FF93209158016A
S1130C80309159014091840050918500C901032E8F
S1130C90000CAA0BBB0BDC019927882760E070E0ED
S1130CA0842B952BA62BB72B80935A0190935B0131
S1130CB0A0935C01B0935D01B09B1BC04091840084
S1130CC050918500C9010196092E000CAA0BBB0B9B
S1130CD0DC019927882760E070E0842B952BA62BF4
S1130CE0B72B80935A0190935B01A0935C01B0935E
S1130CF05D01E091FC01F091FD01309739F061E074
S1130D0070E08091640190916501099501DFFF9184
S1130D10EF91BF91AF919F918F917F916F915F916F
S1130D204F913F912F910F900FBE0F901F901895E8
S1130D301F920F920FB60F9211242F933F934F934C
S1130D405F936F937F938F939F93AF93BF93EF932F
S1130D50FF932091580130915901409184005091A2
S1130D608500C901032E000CAA0BBB0BDC019927DB
S1130D70882760E070E0842B952BA62BB72B8093FB
S1130D805A0190935B01A0935C01B0935D01B09B09
S1130D901BC04091840050918500C9010196092E21
S1130DA0000CAA0BBB0BDC019927882760E070E0DC
S1130DB0842B952BA62BB72B80935A0190935B0120
S1130DC0A0935C01B0935D01E091FE01F091FF01FD
S1130DD0309739F062E070E080916601909167018C
S1130DE0099596DEFF91EF91BF91AF919F918F91FD
S1130DF07F916F915F914F913F912F910F900FBE13
S1130E000F901F9018951F920F920FB60F921124F6
S1130E102F933F934F935F936F937F938F939F93FE
S1130E20AF93BF93EF93FF932091580130915901F1
S1130E304091840050918500C901032E000CAA0B37
S1130E40BB0BDC019927882760E070E0842B952B8D
S1130E50A62BB72B80935A0190935B01A0935C015E
S1130E60B0935D01B09B1BC04091840050918500FC
S1130E70C9010196092E000CAA0BBB0BDC019927B2
S1130E80882760E070E0842B952BA62BB72B8093EA
S1130E905A0190935B01A0935C01B0935D01E091D2
S1130EA00002F0910102309739F063E070E0809124
S1130EB068019091690109952BDEFF91EF91BF9133
S1130EC0AF919F918F917F916F915F914F913F91DE
S1130ED02F910F900FBE0F901F9018951F920F9295
S1130EE00FB60F9211242F933F934F935F936F93F9
S1130EF07F938F939F93AF93BF93EF93FF9320912F
S1130F005801309159014091840050918500C901E4
S1130F10032E000CAA0BBB0BDC019927882760E089
S1130F2070E0842B952BA62BB72B80935A019093BA
S1130F305B01A0935C01B0935D01B09B1BC0409129
S1130F40840050918500C9010196092E000CAA0B5A
S1130F50BB0BDC019927882760E070E0842B952B7C
S1130F60A62BB72B80935A0190935B01A0935C014D
S1130F70B0935D01E0910202F0910302309739F0E1
S1130F8064E070E080916A0190916B010995C0DD85
S1130F90FF91EF91BF91AF919F918F917F916F914D
S1130FA05F914F913F912F910F900FBE0F901F9023
S1130FB018951F920F920FB60F9211242F933F93FF
S1130FC04F935F936F937F938F939F93AF93BF934D
S1130FD0EF93FF932091580130915901409184007F
S1130FE050918500C901032E000CAA0BBB0BDC0138
S1130FF09927882760E070E0842B952BA62BB72BCC
S113100080935A0190935B01A0935C01B0935D01BE
S1131010B09B1BC04091840050918500C90101968A
S1131020092E000CAA0BBB0BDC019927882760E072
S113103070E0842B952BA62BB72B80935A019093A9
S11310405B01A0935C01B0935D01E0910402F09117
S11310500502309739F065E070E080916C01909161
S11310606D01099555DDFF91EF91BF91AF919F916E
S11310708F917F916F915F914F913F912F910F903D
S11310800FBE0F901F9018951F920F920FB60F92DC
S113109011242F933F934F935F936F937F938F9379
S11310A09F93AF93BF93EF93FF9320915801309197
S11310B059014091840050918500C901032E000C10
S11310C0AA0BBB0BDC019927882760E070E0842B16
S11310D0952BA62BB72B80935A0190935B01A09379
S11310E05C01B0935D01B09B1BC0409184005091A2
S11310F08500C9010196092E000CAA0BBB0BDC016B
S11311009927882760E070E0842B952BA62BB72BBA
S113111080935A0190935B01A0935C01B0935D01AD
S1131120E0910602F0910702309739F066E070E032
S113113080916E0190916F010995EADCFF91EF9126
S1131140BF91AF919F918F917F916F915F914F91DB
S11311503F912F910F900FBE0F901F9018951F92E3
S11311600F920FB60F9211242F933F934F935F93D7
S11311706F937F938F939F93AF93BF93EF93FF935B
S1131180209158013091590140918400509185007B
S1131190C901032E000CAA0BBB0BDC01992788277D
S11311A060E070E0842B952BA62BB72B80935A011B
S11311B090935B01A0935C01B0935D01B09B1BC055
S11311C04091840050918500C9010196092E000CBC
S11311D0AA0BBB0BDC019927882760E070E0842B05
S11311E0952BA62BB72B80935A0190935B01A09368
S11311F05C01B0935D01E0910802F091090230971F
S113120039F067E070E08091700190917101099567
S11312107FDCFF91EF91BF91AF919F918F917F916F
S11312206F915F914F913F912F910F900FBE0F904F
S11312301F9018951F920F920FB60F9211242F939F
S11312403F934F935F936F937F938F939F93AF934A
S1131250BF93EF93FF93209158013091590140912E
S1131260840050918500C901032E000CAA0BBB0B0E
S1131270DC019927882760E070E0842B952BA62B4E
S1131280B72B80935A0190935B01A0935C01B093B8
S11312905D01B09B1BC04091840050918500C90141
S11312A00196092E000CAA0BBB0BDC019927882799
S11312B060E070E0842B952BA62BB72B80935A010A
S11312C090935B01A0935C01B0935D01E0910A02ED
S11312D0F0910B02309739F068E070E08091720170
S11312E090917301099514DCFF91EF91BF91AF9137
S11312F09F918F917F916F915F914F913F912F912A
S11313000F900FBE0F901F9018951F920F920FB65B
S11313100F9211242F933F934F935F936F937F9377
S11313208F939F93AF93BF93EF93FF9320915801B3
S1131330309159014091840050918500C901032ED8
S1131340000CAA0BBB0BDC019927882760E070E036
S1131350842B952BA62BB72B80935A0190935B017A
S1131360A0935C01B0935D01B09B1BC040918400CD
S113137050918500C9010196092E000CAA0BBB0BE4
S1131380DC019927882760E070E0842B952BA62B3D
S1131390B72B80935A0190935B01A0935C01B093A7
S11313A05D01E0910C02F0910D02309739F069E093
S11313B070E080917401909175010995A9DBFF910A
S11313C0EF91BF91AF919F918F917F916F915F91B9
S11313D04F913F912F910F900FBE0F901F90189532
S11313E01F920F920FB60F9211242F933F934F9396
S11313F05F936F937F938F939F93AF93BF93EF9379
S1131400FF932091580130915901409184005091EB
S11314108500C901032E000CAA0BBB0BDC01992724
S1131420882760E070E0842B952BA62BB72B809344
S11314305A0190935B01A0935C01B0935D01B09B52
S11314401BC04091840050918500C9010196092E6A
S1131450000CAA0BBB0BDC019927882760E070E025
S1131460842B952BA62BB72B80935A0190935B0169
S1131470A0935C01B0935D01E0910E02F0910F0224
S1131480309739F06AE070E08091760190917701AD
S113149009953EDBFF91EF91BF91AF919F918F91A1
S11314A07F916F915F914F913F912F910F900FBE5C
S11314B00F901F9018951F920F920FB60F92112440
S11314C02F933F934F935F936F937F938F939F9348
S11314D0AF93BF93EF93FF9320915801309159013B
S11314E04091840050918500C901032E000CAA0B81
S11314F0BB0BDC019927882760E070E0842B952BD7
S1131500A62BB72B80935A0190935B01A0935C01A7
S1131510B0935D01B09B1BC0409184005091850045
S1131520C9010196092E000CAA0BBB0BDC019927FB
S1131530882760E070E0842B952BA62BB72B809333
S11315405A0190935B01A0935C01B0935D01E0911B
S11315501002F0911102309739F06BE070E0809145
S11315607801909179010995D3DAFF91EF91BF91B8
S1131570AF919F918F917F916F915F914F913F9127
S11315802F910F900FBE0F901F9018951F920F92DE
S11315900FB60F9211242F933F934F935F936F9342
S11315A07F938F939F93AF93BF93EF93FF93209178
S11315B05801309159014091840050918500C9012E
S11315C0032E000CAA0BBB0BDC019927882760E0D3
S11315D070E0842B952BA62BB72B80935A01909304
S11315E05B01A0935C01B0935D01B09B1BC0409173
S11315F0840050918500C9010196092E000CAA0BA4
S1131600BB0BDC019927882760E070E0842B952BC5
S1131610A62BB72B80935A0190935B01A0935C0196
S1131620B0935D01E0911202F0911302309739F00A
S11316306CE070E080917A0190917B01099568DA01
S1131640FF91EF91BF91AF919F918F917F916F9196
S11316505F914F913F912F910F900FBE0F901F906C
S113166018951F920F920FB60F9211242F933F9348
S11316704F935F936F937F938F939F93AF93BF9396
S1131680EF93FF93209158013091590140918400C8
S113169050918500C901032E000CAA0BBB0BDC0181
S11316A09927882760E070E0842B952BA62BB72B15
S11316B080935A0190935B01A0935C01B0935D0108
S11316C0B09B1BC04091840050918500C9010196D4
S11316D0092E000CAA0BBB0BDC019927882760E0BC
S11316E070E0842B952BA62BB72B80935A019093F3
S11316F05B01A0935C01B0935D01E0911402F09151
S11317001502309739F06DE070E080917C01909182
S11317107D010995FDD9FF91EF91BF91AF919F9103
S11317208F917F916F915F914F913F912F910F9086
S11317300FBE0F901F9018951F920F920FB60F9225
S113174011242F933F934F935F936F937F938F93C2
S11317509F93AF93BF93EF93FF93209158013091E0
S113176059014091840050918500C901032E000C59
S1131770AA0BBB0BDC019927882760E070E0842B5F
S1131780952BA62BB72B80935A0190935B01A093C2
S11317905C01B0935D01B09B1BC0409184005091EB
S11317A08500C9010196092E000CAA0BBB0BDC01B4
S11317B09927882760E070E0842B952BA62BB72B04
S11317C080935A0190935B01A0935C01B0935D01F7
S11317D0E0911602F0911702309739F06EE070E054
S11317E080917E0190917F01099592D9FF91EF91AB
S11317F0BF91AF919F918F917F916F915F914F9125
S11318003F912F910F900FBE0F901F9018951F922C
S11318100F920FB60F9211242F933F934F935F9320
S11318206F937F938F939F93AF93BF93EF93FF93A4
S113183020915801309159014091840050918500C4
S1131840C901032E000CAA0BBB0BDC0199278827C6
S113185060E070E0842B952BA62BB72B80935A0164
S113186090935B01A0935C01B0935D01B09B1BC09E
S11318704091840050918500C9010196092E000C05
S1131880AA0BBB0BDC019927882760E070E0842B4E
S1131890952BA62BB72B80935A0190935B01A093B1
S11318A05C01B0935D01E0911802F0911902309748
S11318B039F06FE070E08091800190918101099589
S11318C027D9FF91EF91BF91AF919F918F917F9114
S11318D06F915F914F913F912F910F900FBE0F9099
S11318E01F9018951F920F920FB60F9211242F93E9
S11318F03F934F935F936F937F938F939F93AF9394
S1131900BF93EF93FF932091580130915901409177
S1131910840050918500C901032E000CAA0BBB0B57
S1131920DC019927882760E070E0842B952BA62B97
S1131930B72B80935A0190935B01A0935C01B09301
S11319405D01B09B1BC04091840050918500C9018A
S11319500196092E000CAA0BBB0BDC0199278827E2
S113196060E070E0842B952BA62BB72B80935A0153
S113197090935B01A0935C01B0935D01E0911A0226
S1131980F0911B02309739F060E170E080918201A0
S1131990909183010995BCD8FF91EF91BF91AF91CC
S11319A09F918F917F916F915F914F913F912F9173
S11319B00F900FBE0F901F9018951F920F920FB6A5
S11319C00F9211242F933F934F935F936F937F93C1
S11319D08F939F93AF93BF93EF93FF9320915801FD
S11319E0309159014091840050918500C901032E22
S11319F0000CAA0BBB0BDC019927882760E070E080
S1131A00842B952BA62BB72B80935A0190935B01C3
S1131A10A0935C01B0935D01B09B1BC04091840016
S1131A2050918500C9010196092E000CAA0BBB0B2D
S1131A30DC019927882760E070E0842B952BA62B86
S1131A40B72B80935A0190935B01A0935C01B093F0
S1131A505D01E0911C02F0911D02309739F061E1C3
S1131A6070E08091840190918501099551D8FF918E
S1131A70EF91BF91AF919F918F917F916F915F9102
S1131A804F913F912F910F900FBE0F901F9018957B
S1131A90EF92FF920F931F93CF93DF937B01EB01A0
S1131AA0A881B981109761F1FC0106811781208515
S1131AB0318516964D915D916D917C91199704171E
S1131AC015072607370714F41BC0DF01ED91FC91BD
S1131AD01197309749F046815781608571850417C5
S1131AE01507260737078CF7EC01F983E88310976D
S1131AF021F4F7019183808307C08D939C9304C0E4
S1131B00EC01B983A883F5CFDF91CF911F910F9199
S1131B10FF90EF900895EF92FF920F931F93CF934E
S1131B20DF937B01EB01A881B981109761F1FC017E
S1131B30028113812481358112964D915D916D91BD
S1131B407C911597041715072607370714F41BC053
S1131B50DF01ED91FC911197309749F04281538157
S1131B606481758104171507260737078CF7EC0184
S1131B70F983E883109721F4F7019183808307C0E8
S1131B808D939C9304C0EC01B983A883F5CFDF91B6
S1131B90CF911F910F91FF90EF900895DC01ED918B
S1131BA0FC911197309759F48FEF8093EC00809358
S1131BB0ED008093EE0081E083BF8895FDCF208106
S1131BC031812D933C93CF0108951F920F920FB64C
S1131BD00F9211242F933F934F935F936F937F93AF
S1131BE08F939F93EF93FF938091580190915901A4
S1131BF001969093590180935801E0915E01F09110
S1131C005F01309701F142815381648175818617A8
S1131C109707C9F4CA012091840030918500421BC2
S1131C20530B4130510529F4809184009091850033
S1131C3001969093890080938800EFE6F0E080811C
S1131C408260808305C0EFE6F0E080818D7F808331
S1131C50FF91EF919F918F917F916F915F914F9140
S1131C603F912F910F900FBE0F901F9018951F92C8
S1131C700F920FB60F921124CF92DF92EF92FF9240
S1131C802F933F934F935F936F937F938F939F9380
S1131C90AF93BF93EF93FF93C0905801D090590135
S1131CA02091840030918500B0990FC00D2C000C58
S1131CB0EE08FF08D601992788276901E12CF12C49
S1131CC0C82AD92AEA2AFB2A15C020918400309117
S1131CD085008FEFC81AD80A0D2C000CEE08FF08F7
S1131CE0D601992788276901E12CF12CC82AD92A21
S1131CF0EA2AFB2AE0915E01F0915F01309709F432
S1131D0040C082819381A481B5818C199D09AE095B
S1131D10BF09181619061A061B06DCF18EE591E0B8
S1131D203DDF60E671E0B4DEE0915E01F0915F01B9
S1131D30309739F182819381A481B5818C199D09F1
S1131D40AE09BF09181619061A061B063CF721C06E
S1131D509C014091840050918500841B950B019750
S1131D6031F420918400309185002F5F3F4F3093F0
S1131D70890020938800EFE6F0E080818260808310
S1131D8005C0EFE6F0E080818D7F80830E948805A6
S1131D900CC082819381A481B58120915801309136
S1131DA059012A173B0769F7D3CFFF91EF91BF91F0
S1131DB0AF919F918F917F916F915F914F913F91DF
S1131DC02F91FF90EF90DF90CF900F900FBE0F9068
S1131DD01F9018953F924F925F926F927F928F92CD
S1131DE09F92AF92BF92CF92DF92EF92FF920F93A6
S1131DF01F93CF93DF932B013C0149015A018FB705
S1131E008078382EF89482E491E0C8DEEC011B87D8
S1131E100A87FD86EC86DF86CE86332061F0E0916A
S1131E203C01F0913D010280F381E02D8281938198
S1131E30A481B58108C080915A0190915B01A09161
S1131E405C01B0915D01480E591E6A1E7B1E4A82D8
S1131E505B826C827D82181419041A041B0444F0FA
S1131E600F2E88248A94982CA82CFFE7BF2EF02DDF
S1131E70840C951CA61CB71C8E829F82A886B986EA
S1131E8080915801909159014091840050918500AE
S1131E90B0990EC0092E000CAA0BBB0BDC019927CC
S1131EA0882760E070E0842B952BA62BB72B13C0FA
S1131EB020918400309185000196092E000CAA0B14
S1131EC0BB0BDC0199278827A90160E070E0842B13
S1131ED0952BA62BB72B481A590A6A0A7B0A1414A5
S1131EE0150416041704A4F56EE571E0CE0113DEA3
S1131EF0E0915E01F0915F01309721F1828193813D
S1131F00A481B58120915801309159012A173B07CA
S1131F10C9F49C014091840050918500841B950B69
S1131F20019731F420918400309185002F5F3F4F59
S1131F303093890020938800EFE6F0E0808182608E
S1131F40808340C0EFE6F0E080818D7F80833AC0DB
S1131F5060E671E0CE019CDD3320B9F1809140014F
S1131F6090914101009781F1E0913E01F0913F0190
S1131F70209160013091610102811381D90116968B
S1131F804D915D916D917C911997D80116960D91A3
S1131F901D912D913C911997401B510B620B730BB2
S1131FA09AF4DC012D913C911197309341012093D7
S1131FB04001ED93FC9390933F0180933E010E9476
S1131FC0680502C0332009F07894CE01DF91CF91E7
S1131FD01F910F91FF90EF90DF90CF90BF90AF9043
S1131FE09F908F907F906F905F904F903F90089557
S1131FF0AF92BF92CF92DF92FF920F931F93CF9332
S1132000DF938C016B015A018FB78078F82EF89416
S1132010D801CD91DC91209771F1AC81BD811097ED
S113202031F0CD91DC91AC81BD811097D1F7E09175
S11320303C01F0913D01CE17DF0721F0FF2009F4A8
S11320404DC007C0FF2009F44CC078948FEF9FEF78
S113205066C0D80112968D919C911397009709F44C
S113206046C0DC0115961C921E92149740C07894C9
S113207080E090E054C080913C0190913D01F801D2
S113208091838083FF2041F0D80112968D919C9119
S11320901397019709F07894B501C801F6010995E1
S11320A0D82FC92F8FB7F894D80111961C921E927D
S11320B012968D919C9113978230910548F0139656
S11320C01C921E921297FC01158214820E946805CC
S11320D0FF2051F078948D2F9C2F21C08FEF9FEF1C
S11320E01EC08FEF9FEF1BC08D2F9C2F18C0D801EF
S11320F01396FC93EE93129715830483CE010E94EA
S11321006805E0913C01F0913D0182819381892B26
S113211009F4ADCFCF01F80191838083B5CFDF916E
S1132120CF911F910F91FF90DF90CF90BF90AF9010
S1132130089500913C0110913D0180E691E02EDD6F
S1132140EC01D80113969C938E93129778944E8544
S11321505F856C857D858A859B854ADF8FB7F8947A
S1132160809142019091430199838883D0934301E4
S1132170C0934201E0913E01F0913F010081118141
S1132180E8012A813B81A0916001B091610110971F
S1132190C1F02115310569F216968D919D910D902E
S11321A0BC91A02DE9014E815F8168857985841BEE
S11321B0950BA60BB70B181619061A061B060CF07E
S11321C0B8CF10933F0100933E018091400190915C
S11321D0410191838083F0934101E0934001A091F8
S11321E03E01B0913F011496ED91FC911597309703
S11321F041F0A081B1811496ED91FC91159730972F
S1132200C1F7CD010E94680594CF4231B8F42FB7CD
S1132210F89450E0440F551FFA01EE59FE4F918394
S11322208083FA01E650FE4F7183608341E050E001
S1132230FC015383428322230CF4789408958C0187
S1132240EB017A018FB7F8940E94FD0478942097EB
S113225021F0B701C801FE0109958FB7F8940E94D7
S11322608805789481E083BF8895FDCF97FB072E7E
S113227016F4009406D077FD08D037D007FC05D0BB
S11322803EF4909581959F4F0895709561957F4F89
S11322900895052E97FB16F400940FD057FD05D032
S11322A038D007FC02D046F408C0509540953095CC
S11322B021953F4F4F4F5F4F0895909580957095AE
S11322C061957F4F8F4F9F4F089545D0B7FF089575
S11322D0821B930B08953FD0A59F900DB49F900D42
S11322E0A49F800D911D11240895AA1BBB1B51E1CD
S11322F007C0AA1FBB1FA617B70710F0A61BB70B72
S1132300881F991F5A95A9F780959095BC01CD0116
S11323100895A1E21A2EAA1BBB1BFD010DC0AA1F22
S1132320BB1FEE1FFF1FA217B307E407F50720F03A
S1132330A21BB30BE40BF50B661F771F881F991FB5
S11323401A9469F760957095809590959B01AC01FE
S1132350BD01CF010895A29FB001B39FC001A39F07
S1132360700D811D1124911DB29F700D811D1124CA
S1132370911D0895DC012D923D924D925D926D92D6
S11323807D928D929D92AD92BD92CD92DD92ED9211
S1132390FD920D931D93CD93DD93FF91EF918DB736
S11323A08D938EB78D938FB78D93ED93FD9388277F
S11323B099270994DC01CB0181309105811D2D9071
S11323C03D904D905D906D907D908D909D90AD90E1
S11323D0BD90CD90DD90ED90FD900D911D91CD912E
S11323E0DD91ED91FD910D90F894FEBF0FBEEDBF10
S10D23F0ED91FD910994F894FFCFDC
S11323FA00000000000000000000000001002701A6
S113240A1201000000000000000000002E00060473
S113241A00010000000000000000000000000000AD
S113242A002E000400000100000000001E021E022B
S113243A86013B0251151001111E111B500B411B41
S10B244A411F1101511F511B38
S9030000FC
