:100000002DC0000058C50000C1C500002AC6000070
:1000100093C60000FCC600003DC000000C94D00D4B
:1000200039C000000C947E0D5DC70000C6C70000FB
:100030000C9448080C94B3080C941E090C9489097C
:100040000C94F4090C945F0A0C94CA0A0C94350BB6
:100050000C94A00B0C940B0C0C94760C11241FBE6A
:10006000CFEFD4E0DEBFCDBF11E0A0E0B1E0ECE225
:10007000F3E202C005900D92A035B107D9F724E054
:10008000A0E5B1E001C01D92A33AB207E1F794D315
:100090000C949411B5CF80EC8093E40087EB8093AF
:1000A000E50087E08093E6008FE08093E700089505
:1000B0008DB3806C8DBBECE6F0E08081806D808339
:1000C00085B1806D85B9EBE6F0E080818C6080833E
:1000D0008EB18C608EB90895AB01F894805360FFA7
:1000E00003C074E0AFE002C070E0A0EFE82FF0E0E2
:1000F000EE0FFF1FE45CFE4F20813181FA01FF23E8
:100100000CF43196F595E795E451FF4FAF014C5E45
:100110005F4FC9018F709927072E02C0880F991F62
:100120000A94E2F790819A23892B80833295229555
:100130002F7023273F7023273596E417F50749F7DB
:10014000789408959C01F89480FD02C090EF01C05E
:100150009FE0F901FF230CF43196F595E795E45102
:10016000FF4F9F012C5E3F4F80818923808335960E
:10017000E217F307C9F7789408951F93CF93DF939D
:10018000EB012AE030E0B9010E94CF10182FCB011B
:10019000B9010E94CF10BE01805D9EDFBE016F5F7E
:1001A0007F4F80E3810F98DFDF91CF911F910895FA
:1001B000CF93DF93EC01C6DFCE010196C3DFDF9161
:1001C000CF910895CF93DF93FC0123853485232BB2
:1001D00011F4672B51F0EC0169857A858C819D8142
:1001E000CCDF81E090E09C878B8780E090E0DF911E
:1001F000CF910895CF93DF93EC0189859A85D8DF5D
:100200001C861B8680E090E0DF91CF910895AF922D
:10021000BF92CF92DF92EF92FF920F931F93CF93F3
:10022000DF93FC01278530892617370709F04DC079
:10023000EC015901FFEFAF1ABF0AB88AAF8620FF61
:1002400022C0C12CD12C0F2EFAEFEF2EF0E0FF2EA2
:10025000F02D8C0120E030E0A90160E070E0CB01DE
:100260000E94830E65010F2EF7E0EF2EF1E0FF2EC6
:10027000F02D20E030E0A9016FE974E280E090E029
:100280000E94830E22C0CC24C394D12C0F2EF2EEF8
:10029000EF2EF0E0FF2EF02D8C0120E030E0A901E0
:1002A00060E070E0CB010E94830E65010F2EF7E045
:1002B000EF2EF1E0FF2EF02D20E030E0A90163E702
:1002C00075E580E090E00E94830E80E090E0DF9191
:1002D000CF911F910F91FF90EF90DF90CF90BF9043
:1002E000AF900895FC0184819581009739F485854C
:1002F00096859583848316861586089596878587C7
:1003000015821482089521E030E0FC0135872487AE
:1003100080E090E008958F929F92AF92BF92CF922B
:10032000DF92EF92FF920F931F93CF93DF93FC0125
:10033000C680D780C616D70609F068C0EC01560102
:10034000FFEFAF1ABF0ABF82AE828C809D8040E073
:1003500050E06CE774E0C4010E94910F8F3F2FEFD3
:10036000920729F02A853B852115310529F41B8642
:100370001A861F821E824CC06C01C20ED31E0F2E25
:10038000F0E8EF2EF4E0FF2EF02D840120E030E0C5
:10039000A90160E070E0CB010E94830EC12CD12C3A
:1003A0000F2EF2EEEF2EF0E0FF2EF02D20E030E0E9
:1003B000A90160E070E0CB010E94830E28EA31E6DB
:1003C000D5010E94FE10AB01BC01405659476E4F4B
:1003D0007F4FDB01CA011AF40396A11DB11DBC01B8
:1003E000CD0195958795779567959595879577959F
:1003F000679565010F2EFBE8EF2EF1E0FF2EF02D43
:100400008E0120E030E0A9010E94830E80E090E0A0
:10041000DF91CF911F910F91FF90EF90DF90CF90E0
:10042000BF90AF909F908F900895CF92DF92EF9200
:10043000FF920F931F93CF93DF93EC0163994FC00B
:10044000EC81FD8188899989E817F907C1F4108A40
:1004500017860C811D81CC24C394D12C0F2EF2EE73
:10046000EF2EF0E0FF2EF02D20E030E0A90160E05B
:1004700070E0CB010E94830E1D821C8280C09D8390
:100480008C83EE85FF85108A17860E851F85CC2408
:10049000C394D12C0F2EF2EEEF2EF0E0FF2EF02DB4
:1004A00020E030E0A90160E070E0CB010E94830E03
:1004B000EC81FD81108A17860C811D81C12CD12C05
:1004C0000F2EF7E0EF2EF1E0FF2EF02D20E030E0D0
:1004D000A90160E070E0CB010E94830E50C06299D8
:1004E0004EC0EC81FD818E859F85E817F907C1F428
:1004F000108A17860C811D81CC24C394D12C0F2E19
:10050000F2EEEF2EF0E0FF2EF02D20E030E0A9011A
:1005100060E070E0CB010E94830E1D821C822FC020
:100520009D838C83E889F989108A1786088919893F
:10053000CC24C394D12C0F2EF2EEEF2EF0E0FF2E40
:10054000F02D20E030E0A90160E070E0CB010E94D6
:10055000830EEC81FD81108A17860C811D81C12CD0
:10056000D12C0F2EF7E0EF2EF1E0FF2EF02D20E042
:1005700030E0A90160E070E0CB010E94830E80E0D2
:1005800090E0DF91CF911F910F91FF90EF90DF905E
:10059000CF900895AF92BF92CF92DF92EF92FF92E9
:1005A0000F931F93CF93DF93FC01A480B580A11418
:1005B000B10409F4A3C0EC011F9933C0CC24CA9440
:1005C000DC2C0F2EF2E6EF2EF4E0FF2EF02D85014D
:1005D00020E030E0A90160E070E0CB010E94830ED2
:1005E0008FEF9FEF9B878A878E819F81892B09F0F0
:1005F00071C081E090E09F838E83CC24C394D12C82
:100600000F2EFBE8EF2EF1E0FF2EF02D8E0120E003
:1006100030E0A90162E17AE780E090E00E94830E79
:1006200059C01E992FC0CC24C394D12C0F2EF2E6B2
:10063000EF2EF4E0FF2EF02D850120E030E0A9013F
:1006400060E070E0CB010E94830E81E090E09B8728
:100650008A878E819F81892BE9F581E090E09F83D5
:100660008E830F2EFBE8EF2EF1E0FF2EF02D8E0192
:1006700020E030E0A90162E17AE780E090E00E94AA
:10068000830E28C01C9920C084859585892BB1F1E3
:1006900015861486C12CD12C0F2EF3E8EF2EF1E035
:1006A000FF2EF02D8F0120E030E0A90169E07DE30D
:1006B00080E090E00E94830E40E050E062E771E04D
:1006C000C5010E94910F06C01F9B04C01E9B02C063
:1006D00013861286C12CD12C0F2EF2EEEF2EF0E0F5
:1006E000FF2EF02D850120E030E0A90160E070E0F0
:1006F000CB010E94830E80E090E000C0DF91CF919B
:100700001F910F91FF90EF90DF90CF90BF90AF902F
:100710000895CF92DF92EF92FF920F931F93CC2414
:10072000C394D12C0F2EF2EEEF2EF0E0FF2EF02D21
:1007300003E211E020E030E0A90160E070E0CB01CD
:100740000E94830EC12CD12C0F2EF6EFEF2EF3E07A
:10075000FF2EF02D20E030E0A90160E070E0CB0139
:100760000E94830ECC24C394D12C0F2EF2EEEF2ED8
:10077000F0E0FF2EF02D02E111E020E030E0A901D1
:1007800060E070E0CB010E94830EC12CD12C0F2EB3
:10079000F6EFEF2EF3E0FF2EF02D20E030E0A90180
:1007A00060E070E0CB010E94830E1F910F91FF90DB
:1007B000EF90DF90CF90089578946DDC79DC42E083
:1007C0006AEC72E080E091E00E949E1041E065E1F9
:1007D00072E080E091E00E949E1040E050E069E805
:1007E00073E080E090E00C94B8100895CF92DF920F
:1007F000EF92FF920F931F93CF93DF93EC018C81C5
:100800009D81892BA1F1EE81FF8181E090E0088438
:1008100002C0880F991F0A94E2F79081892780838C
:100820002C813D81032E000C440B550B60E271EAD4
:1008300087E090E00E94E210ADE7B0E00E94041172
:1008400020EA3FE040E050E00E94E210CA01B90116
:10085000C12CD12C0F2EF6EFEF2EF3E0FF2EF02D52
:100860008E0120E030E0A9010E94830E20C0EE81BD
:10087000FF8181E090E0088402C0880F991F0A94EC
:10088000E2F78095908189238083C12CD12C0F2E93
:10089000F6EFEF2EF3E0FF2EF02D8E0120E030E09A
:1008A000A90162E17AE780E090E00E94830E80E097
:1008B00090E0DF91CF911F910F91FF90EF90DF902B
:1008C000CF900895FC0124813581620F731F1616A5
:1008D00017061CF0158214820CC06436710534F0C2
:1008E00023E630E0FC013583248303C0FC017583DB
:1008F000648380E090E00895FC01848195810895EF
:100900006436710534F023E630E0FC01358324833E
:100910000AC01616170624F0FC011582148203C0C3
:10092000FC017583648380E090E00895CF93DF93AA
:1009300000D000D0CDB7DEB783E492E023E233E00D
:10094000FC01709791838083409682179307C1F7CB
:100950001092140310921303EEE7F1E08BE991E09B
:100960009183808388EB91E0968F858FA5EDB1E030
:10097000B3AFA2AF1D921C92FA83E983EFE7F3E0D5
:10098000FC83EB8389819A8106960E9453118B81A7
:100990009C81E981FA81978B868B918F808F82E38E
:1009A00090E1948F838F158214827D96FA83E98378
:1009B000EB81FC81E05AFF4FFC83EB8389819A81B4
:1009C000825F9140F9F6E6E1F2E011821082158231
:1009D000148213821282E1E6F0E080E880831082C4
:1009E000109285001092840084E08093810081E061
:1009F00080936F000F900F900F900F90DF91CF9129
:100A00000895CF93DF9300D0CDB7DEB79A83898363
:100A1000809134019091350106960E945311892BE3
:100A200059F489819A81909335018093340161E072
:100A300070E006960E9473110F900F90DF91CF9196
:100A400008950F931F93CF93DF93C0913601D091F8
:100A50003701AA81BB81E0915801F091590130978B
:100A600029F180913801909139010097F9F01097A0
:100A700079F0468157816085718516960D911D919B
:100A80002D913C911997401B510B620B730B72F423
:100A9000FC01208131813093390120933801D183C9
:100AA000C0839093370180933601ABDFDF91CF9104
:100AB0001F910F9108951F920F920FB60F9211245C
:100AC0002F933F934F935F936F937F938F939F9356
:100AD000AF93BF93EF93FF93209150013091510159
:100AE0004091840050918500C901032E000CAA0B8F
:100AF000BB0BDC019927882760E070E0842B952BE5
:100B0000A62BB72B8093520190935301A0935401CD
:100B1000B0935501B09B1BC040918400509185005B
:100B2000C9010196092E000CAA0BBB0BDC01992709
:100B3000882760E070E0842B952BA62BB72B809341
:100B4000520190935301A0935401B0935501E09149
:100B5000F201F091F301309739F060E070E080919C
:100B60005A0190915B0109956CDFFF91EF91BF9164
:100B7000AF919F918F917F916F915F914F913F9135
:100B80002F910F900FBE0F901F9018951F920F92EC
:100B90000FB60F9211242F933F934F935F936F9350
:100BA0007F938F939F93AF93BF93EF93FF93209186
:100BB0005001309151014091840050918500C9014C
:100BC000032E000CAA0BBB0BDC019927882760E0E1
:100BD00070E0842B952BA62BB72B8093520190931A
:100BE0005301A0935401B0935501B09B1BC0409199
:100BF000840050918500C9010196092E000CAA0BB2
:100C0000BB0BDC019927882760E070E0842B952BD3
:100C1000A62BB72B8093520190935301A0935401BC
:100C2000B0935501E091F401F091F501309739F05E
:100C300061E070E080915C0190915D01099501DFB8
:100C4000FF91EF91BF91AF919F918F917F916F91A4
:100C50005F914F913F912F910F900FBE0F901F907A
:100C600018951F920F920FB60F9211242F933F9356
:100C70004F935F936F937F938F939F93AF93BF93A4
:100C8000EF93FF93209150013091510140918400E6
:100C900050918500C901032E000CAA0BBB0BDC018F
:100CA0009927882760E070E0842B952BA62BB72B23
:100CB0008093520190935301A0935401B093550136
:100CC000B09B1BC04091840050918500C9010196E2
:100CD000092E000CAA0BBB0BDC019927882760E0CA
:100CE00070E0842B952BA62BB72B80935201909309
:100CF0005301A0935401B0935501E091F601F09196
:100D0000F701309739F062E070E080915E019091D8
:100D10005F01099596DEFF91EF91BF91AF919F9191
:100D20008F917F916F915F914F913F912F910F9094
:100D30000FBE0F901F9018951F920F920FB60F9233
:100D400011242F933F934F935F936F937F938F93D0
:100D50009F93AF93BF93EF93FF93209150013091F6
:100D600051014091840050918500C901032E000C6F
:100D7000AA0BBB0BDC019927882760E070E0842B6D
:100D8000952BA62BB72B8093520190935301A093E0
:100D90005401B0935501B09B1BC040918400509109
:100DA0008500C9010196092E000CAA0BBB0BDC01C2
:100DB0009927882760E070E0842B952BA62BB72B12
:100DC0008093520190935301A0935401B093550125
:100DD000E091F801F091F901309739F063E070E0AB
:100DE000809160019091610109952BDEFF91EF9157
:100DF000BF91AF919F918F917F916F915F914F9133
:100E00003F912F910F900FBE0F901F9018951F923A
:100E10000F920FB60F9211242F933F934F935F932E
:100E20006F937F938F939F93AF93BF93EF93FF93B2
:100E300020915001309151014091840050918500E2
:100E4000C901032E000CAA0BBB0BDC0199278827D4
:100E500060E070E0842B952BA62BB72B809352017A
:100E600090935301A0935401B0935501B09B1BC0C4
:100E70004091840050918500C9010196092E000C13
:100E8000AA0BBB0BDC019927882760E070E0842B5C
:100E9000952BA62BB72B8093520190935301A093CF
:100EA0005401B0935501E091FA01F091FB013097A4
:100EB00039F064E070E080916201909163010995DE
:100EC000C0DDFF91EF91BF91AF919F918F917F9185
:100ED0006F915F914F913F912F910F900FBE0F90A7
:100EE0001F9018951F920F920FB60F9211242F93F7
:100EF0003F934F935F936F937F938F939F93AF93A2
:100F0000BF93EF93FF932091500130915101409195
:100F1000840050918500C901032E000CAA0BBB0B65
:100F2000DC019927882760E070E0842B952BA62BA5
:100F3000B72B8093520190935301A0935401B09327
:100F40005501B09B1BC04091840050918500C901A0
:100F50000196092E000CAA0BBB0BDC0199278827F0
:100F600060E070E0842B952BA62BB72B8093520169
:100F700090935301A0935401B0935501E091FC016B
:100F8000F091FD01309739F065E070E080916401E7
:100F900090916501099555DDFF91EF91BF91AF915A
:100FA0009F918F917F916F915F914F913F912F9181
:100FB0000F900FBE0F901F9018951F920F920FB6B3
:100FC0000F9211242F933F934F935F936F937F93CF
:100FD0008F939F93AF93BF93EF93FF932091500113
:100FE000309151014091840050918500C901032E38
:100FF000000CAA0BBB0BDC019927882760E070E08E
:10100000842B952BA62BB72B8093520190935301E1
:10101000A0935401B0935501B09B1BC04091840034
:1010200050918500C9010196092E000CAA0BBB0B3B
:10103000DC019927882760E070E0842B952BA62B94
:10104000B72B8093520190935301A0935401B09316
:101050005501E091FE01F091FF01309739F066E013
:1010600070E080916601909167010995EADCFF913B
:10107000EF91BF91AF919F918F917F916F915F9110
:101080004F913F912F910F900FBE0F901F90189589
:101090001F920F920FB60F9211242F933F934F93ED
:1010A0005F936F937F938F939F93AF93BF93EF93D0
:1010B000FF93209150013091510140918400509153
:1010C0008500C901032E000CAA0BBB0BDC0199277C
:1010D000882760E070E0842B952BA62BB72B80939C
:1010E000520190935301A0935401B0935501B09BCA
:1010F0001BC04091840050918500C9010196092EC2
:10110000000CAA0BBB0BDC019927882760E070E07C
:10111000842B952BA62BB72B8093520190935301D0
:10112000A0935401B0935501E0910002F0910102A7
:10113000309739F067E070E0809168019091690123
:1011400009957FDCFF91EF91BF91AF919F918F91B6
:101150007F916F915F914F913F912F910F900FBEB3
:101160000F901F9018951F920F920FB60F92112497
:101170002F933F934F935F936F937F938F939F939F
:10118000AF93BF93EF93FF932091500130915101A2
:101190004091840050918500C901032E000CAA0BD8
:1011A000BB0BDC019927882760E070E0842B952B2E
:1011B000A62BB72B8093520190935301A093540117
:1011C000B0935501B09B1BC04091840050918500A5
:1011D000C9010196092E000CAA0BBB0BDC01992753
:1011E000882760E070E0842B952BA62BB72B80938B
:1011F000520190935301A0935401B0935501E09193
:101200000202F0910302309739F068E070E08091BB
:101210006A0190916B01099514DCFF91EF91BF91E8
:10122000AF919F918F917F916F915F914F913F917E
:101230002F910F900FBE0F901F9018951F920F9235
:101240000FB60F9211242F933F934F935F936F9399
:101250007F938F939F93AF93BF93EF93FF932091CF
:101260005001309151014091840050918500C90195
:10127000032E000CAA0BBB0BDC019927882760E02A
:1012800070E0842B952BA62BB72B80935201909363
:101290005301A0935401B0935501B09B1BC04091E2
:1012A000840050918500C9010196092E000CAA0BFB
:1012B000BB0BDC019927882760E070E0842B952B1D
:1012C000A62BB72B8093520190935301A093540106
:1012D000B0935501E0910402F0910502309739F086
:1012E00069E070E080916C0190916D010995A9DB36
:1012F000FF91EF91BF91AF919F918F917F916F91EE
:101300005F914F913F912F910F900FBE0F901F90C3
:1013100018951F920F920FB60F9211242F933F939F
:101320004F935F936F937F938F939F93AF93BF93ED
:10133000EF93FF932091500130915101409184002F
:1013400050918500C901032E000CAA0BBB0BDC01D8
:101350009927882760E070E0842B952BA62BB72B6C
:101360008093520190935301A0935401B09355017F
:10137000B09B1BC04091840050918500C90101962B
:10138000092E000CAA0BBB0BDC019927882760E013
:1013900070E0842B952BA62BB72B80935201909352
:1013A0005301A0935401B0935501E0910602F091CE
:1013B0000702309739F06AE070E080916E019091F9
:1013C0006F0109953EDBFF91EF91BF91AF919F9126
:1013D0008F917F916F915F914F913F912F910F90DE
:1013E0000FBE0F901F9018951F920F920FB60F927D
:1013F00011242F933F934F935F936F937F938F931A
:101400009F93AF93BF93EF93FF932091500130913F
:1014100051014091840050918500C901032E000CB8
:10142000AA0BBB0BDC019927882760E070E0842BB6
:10143000952BA62BB72B8093520190935301A09329
:101440005401B0935501B09B1BC040918400509152
:101450008500C9010196092E000CAA0BBB0BDC010B
:101460009927882760E070E0842B952BA62BB72B5B
:101470008093520190935301A0935401B09355016E
:10148000E0910802F0910902309739F06BE070E0CA
:1014900080917001909171010995D3DAFF91EF91DC
:1014A000BF91AF919F918F917F916F915F914F917C
:1014B0003F912F910F900FBE0F901F9018951F9284
:1014C0000F920FB60F9211242F933F934F935F9378
:1014D0006F937F938F939F93AF93BF93EF93FF93FC
:1014E000209150013091510140918400509185002C
:1014F000C901032E000CAA0BBB0BDC01992788271E
:1015000060E070E0842B952BA62BB72B80935201C3
:1015100090935301A0935401B0935501B09B1BC00D
:101520004091840050918500C9010196092E000C5C
:10153000AA0BBB0BDC019927882760E070E0842BA5
:10154000952BA62BB72B8093520190935301A09318
:101550005401B0935501E0910A02F0910B023097CB
:1015600039F06CE070E080917201909173010995FF
:1015700068DAFF91EF91BF91AF919F918F917F9129
:101580006F915F914F913F912F910F900FBE0F90F0
:101590001F9018951F920F920FB60F9211242F9340
:1015A0003F934F935F936F937F938F939F93AF93EB
:1015B000BF93EF93FF9320915001309151014091DF
:1015C000840050918500C901032E000CAA0BBB0BAF
:1015D000DC019927882760E070E0842B952BA62BEF
:1015E000B72B8093520190935301A0935401B09371
:1015F0005501B09B1BC04091840050918500C901EA
:101600000196092E000CAA0BBB0BDC019927882739
:1016100060E070E0842B952BA62BB72B80935201B2
:1016200090935301A0935401B0935501E0910C02A3
:10163000F0910D02309739F06DE070E08091740107
:10164000909175010995FDD9FF91EF91BF91AF91EF
:101650009F918F917F916F915F914F913F912F91CA
:101660000F900FBE0F901F9018951F920F920FB6FC
:101670000F9211242F933F934F935F936F937F9318
:101680008F939F93AF93BF93EF93FF93209150015C
:10169000309151014091840050918500C901032E81
:1016A000000CAA0BBB0BDC019927882760E070E0D7
:1016B000842B952BA62BB72B80935201909353012B
:1016C000A0935401B0935501B09B1BC0409184007E
:1016D00050918500C9010196092E000CAA0BBB0B85
:1016E000DC019927882760E070E0842B952BA62BDE
:1016F000B72B8093520190935301A0935401B09360
:101700005501E0910E02F0910F02309739F06EE032
:1017100070E08091760190917701099592D9FF91BF
:10172000EF91BF91AF919F918F917F916F915F9159
:101730004F913F912F910F900FBE0F901F901895D2
:101740001F920F920FB60F9211242F933F934F9336
:101750005F936F937F938F939F93AF93BF93EF9319
:10176000FF9320915001309151014091840050919C
:101770008500C901032E000CAA0BBB0BDC019927C5
:10178000882760E070E0842B952BA62BB72B8093E5
:10179000520190935301A0935401B0935501B09B13
:1017A0001BC04091840050918500C9010196092E0B
:1017B000000CAA0BBB0BDC019927882760E070E0C6
:1017C000842B952BA62BB72B80935201909353011A
:1017D000A0935401B0935501E0911002F0911102D1
:1017E000309739F06FE070E0809178019091790145
:1017F000099527D9FF91EF91BF91AF919F918F915B
:101800007F916F915F914F913F912F910F900FBEFC
:101810000F901F9018951F920F920FB60F921124E0
:101820002F933F934F935F936F937F938F939F93E8
:10183000AF93BF93EF93FF932091500130915101EB
:101840004091840050918500C901032E000CAA0B21
:10185000BB0BDC019927882760E070E0842B952B77
:10186000A62BB72B8093520190935301A093540160
:10187000B0935501B09B1BC04091840050918500EE
:10188000C9010196092E000CAA0BBB0BDC0199279C
:10189000882760E070E0842B952BA62BB72B8093D4
:1018A000520190935301A0935401B0935501E091DC
:1018B0001202F0911302309739F060E170E08091EC
:1018C0007A0190917B010995BCD8FF91EF91BF916E
:1018D000AF919F918F917F916F915F914F913F91C8
:1018E0002F910F900FBE0F901F9018951F920F927F
:1018F0000FB60F9211242F933F934F935F936F93E3
:101900007F938F939F93AF93BF93EF93FF93209118
:101910005001309151014091840050918500C901DE
:10192000032E000CAA0BBB0BDC019927882760E073
:1019300070E0842B952BA62BB72B809352019093AC
:101940005301A0935401B0935501B09B1BC040912B
:10195000840050918500C9010196092E000CAA0B44
:10196000BB0BDC019927882760E070E0842B952B66
:10197000A62BB72B8093520190935301A09354014F
:10198000B0935501E0911402F0911502309739F0AF
:1019900061E170E080917C0190917D01099551D8C1
:1019A000FF91EF91BF91AF919F918F917F916F9137
:1019B0005F914F913F912F910F900FBE0F901F900D
:1019C0001895EF92FF920F931F93CF93DF937B01B4
:1019D000EB01A881B981109761F1FC0106811781A3
:1019E0002085318516964D915D916D917C91199769
:1019F000041715072607370714F41BC0DF01ED9104
:101A0000FC911197309749F0468157816085718527
:101A100004171507260737078CF7EC01F983E883CD
:101A2000109721F4F7019183808307C08D939C93D5
:101A300004C0EC01B983A883F5CFDF91CF911F914A
:101A40000F91FF90EF900895EF92FF920F931F93E5
:101A5000CF93DF937B01EB01A881B981109761F1EE
:101A6000FC01028113812481358112964D915D9193
:101A70006D917C911597041715072607370714F405
:101A80001BC0DF01ED91FC911197309749F0428125
:101A900053816481758104171507260737078CF772
:101AA000EC01F983E883109721F4F7019183808397
:101AB00007C08D939C9304C0EC01B983A883F5CF34
:101AC000DF91CF911F910F91FF90EF900895DC016E
:101AD000ED91FC911197309759F48FEF8093EC00C2
:101AE0008093ED008093EE0081E083BF8895FDCF69
:101AF000208131812D933C93CF0108951F920F9245
:101B00000FB60F9211242F933F934F935F936F93D0
:101B10007F938F939F93EF93FF93809150019091C8
:101B2000510101969093510180935001E09156012B
:101B3000F0915701309701F14281538164817581A1
:101B400086179707C9F4CA01209184003091850057
:101B5000421B530B4130510529F480918400909130
:101B6000850001969093890080938800EFE6F0E06D
:101B700080818260808305C0EFE6F0E080818D7F08
:101B80008083FF91EF919F918F917F916F915F91F2
:101B90004F913F912F910F900FBE0F901F9018956E
:101BA0001F920F920FB60F921124CF92DF92EF92F5
:101BB000FF922F933F934F935F936F937F938F93F6
:101BC0009F93AF93BF93EF93FF93C0905001D0903A
:101BD00051012091840030918500B0990FC00D2CE7
:101BE000000CEE08FF08D601992788276901E12C2F
:101BF000F12CC82AD92AEA2AFB2A15C02091840090
:101C0000309185008FEFC81AD80A0D2C000CEE0811
:101C1000FF08D601992788276901E12CF12CC82AF1
:101C2000D92AEA2AFB2AE0915601F0915701309710
:101C300009F440C082819381A481B5818C199D09EA
:101C4000AE09BF09181619061A061B06DCF186E54F
:101C500091E03DDF68E571E0B4DEE0915601F0917E
:101C60005701309739F182819381A481B5818C1914
:101C70009D09AE09BF09181619061A061B063CF77E
:101C800021C09C014091840050918500841B950BDC
:101C9000019731F420918400309185002F5F3F4FF0
:101CA0003093890020938800EFE6F0E08081826025
:101CB000808305C0EFE6F0E080818D7F80830E9405
:101CC00021050CC082819381A481B58120915001AE
:101CD000309151012A173B0769F7D3CFFF91EF915C
:101CE000BF91AF919F918F917F916F915F914F9134
:101CF0003F912F91FF90EF90DF90CF900F900FBE0C
:101D00000F901F9018953F924F925F926F927F9223
:101D10008F929F92AF92BF92CF92DF92EF92FF92FB
:101D20000F931F93CF93DF932B013C0149015A017D
:101D30008FB78078382EF8948AE391E0C8DEEC0102
:101D40001B870A87FD86EC86DF86CE86332061F00E
:101D5000E0913401F09135010280F381E02D828120
:101D60009381A481B58108C0809152019091530163
:101D7000A0915401B0915501480E591E6A1E7B1E58
:101D80004A825B826C827D82181419041A041B0437
:101D900044F00F2E88248A94982CA82CFFE7BF2E9D
:101DA000F02D840C951CA61CB71C8E829F82A886E1
:101DB000B9868091500190915101409184005091D9
:101DC0008500B0990EC0092E000CAA0BBB0BDC01DC
:101DD0009927882760E070E0842B952BA62BB72BE2
:101DE00013C020918400309185000196092E000CCB
:101DF000AA0BBB0BDC0199278827A90160E070E0E2
:101E0000842B952BA62BB72B481A590A6A0A7B0AF2
:101E10001414150416041704A4F566E571E0CE0148
:101E200013DEE0915601F0915701309721F1828144
:101E30009381A481B58120915001309151012A17DD
:101E40003B07C9F49C014091840050918500841B9C
:101E5000950B019731F420918400309185002F5F1C
:101E60003F4F3093890020938800EFE6F0E08081B7
:101E70008260808340C0EFE6F0E080818D7F8083C8
:101E80003AC068E571E0CE019CDD3320B9F1809164
:101E9000380190913901009781F1E0913601F0917C
:101EA0003701209158013091590102811381D901E4
:101EB00016964D915D916D917C911997D80116966A
:101EC0000D911D912D913C911997401B510B620B67
:101ED000730B9AF4DC012D913C91119730933901E9
:101EE00020933801ED93FC93909337018093360152
:101EF0000E94010502C0332009F07894CE01DF91E1
:101F0000CF911F910F91FF90EF90DF90CF90BF90F6
:101F1000AF909F908F907F906F905F904F903F9089
:101F20000895AF92BF92CF92DF92FF920F931F93CB
:101F3000CF93DF938C016B015A018FB78078F82E15
:101F4000F894D801CD91DC91209771F1AC81BD81DD
:101F5000109731F0CD91DC91AC81BD811097D1F714
:101F6000E0913401F0913501CE17DF0721F0FF2019
:101F700009F44DC007C0FF2009F44CC078948FEFDE
:101F80009FEF66C0D80112968D919C911397009790
:101F900009F446C0DC0115961C921E92149740C0AD
:101FA000789480E090E054C08091340190913501A4
:101FB000F80191838083FF2041F0D80112968D9122
:101FC0009C911397019709F07894B501C801F60127
:101FD0000995D82FC92F8FB7F894D80111961C9264
:101FE0001E9212968D919C9113978230910548F024
:101FF00013961C921E921297FC01158214820E9465
:102000000105FF2051F078948D2F9C2F21C08FEF78
:102010009FEF1EC08FEF9FEF1BC08D2F9C2F18C00E
:10202000D8011396FC93EE93129715830483CE0187
:102030000E940105E0913401F09135018281938184
:10204000892B09F4ADCFCF01F80191838083B5CFFF
:10205000DF91CF911F910F91FF90DF90CF90BF90B4
:10206000AF900895009134011091350188E591E019
:102070002EDDEC01D80113969C938E9312977894E1
:102080004E855F856C857D858A859B854ADF8FB708
:10209000F89480913A0190913B0199838883D09381
:1020A0003B01C0933A01E0913601F0913701008184
:1020B0001181E8012A813B81A0915801B091590119
:1020C0001097C1F02115310569F216968D919D91F9
:1020D0000D90BC91A02DE9014E815F8168857985C5
:1020E000841B950BA60BB70B181619061A061B06B0
:1020F0000CF0B8CF1093370100933601809138016E
:102100009091390191838083F0933901E0933801F4
:10211000A0913601B09137011496ED91FC9115977D
:10212000309741F0A081B1811496ED91FC91159703
:102130003097C1F7CD010E94010594CF4231B8F428
:102140002FB7F89450E0440F551FFA01E65AFE4F9E
:1021500091838083FA01EE50FE4F7183608341E0EA
:1021600050E0FC015383428322230CF478940895B9
:102170008C01EB017A018FB7F8940E949604789451
:10218000209721F0B701C801FE0109958FB7F89497
:102190000E942105789481E083BF8895FDCF97FB4D
:1021A000072E16F4009406D077FD08D037D007FC30
:1021B00005D03EF4909581959F4F08957095619557
:1021C0007F4F0895052E97FB16F400940FD057FD0E
:1021D00005D038D007FC02D046F408C05095409591
:1021E000309521953F4F4F4F5F4F089590958095C3
:1021F000709561957F4F8F4F9F4F089545D0B7FFE2
:102200000895821B930B08953FD0A59F900DB49F16
:10221000900DA49F800D911D11240895AA1BBB1B36
:1022200051E107C0AA1FBB1FA617B70710F0A61BD6
:10223000B70B881F991F5A95A9F780959095BC01F7
:10224000CD010895A1E21A2EAA1BBB1BFD010DC0F2
:10225000AA1FBB1FEE1FFF1FA217B307E407F50756
:1022600020F0A21BB30BE40BF50B661F771F881F32
:10227000991F1A9469F760957095809590959B01C8
:10228000AC01BD01CF010895A29FB001B39FC00171
:10229000A39F700D811D1124911DB29F700D811D92
:1022A0001124911D0895DC012D923D924D925D9275
:1022B0006D927D928D929D92AD92BD92CD92DD9266
:1022C000ED92FD920D931D93CD93DD93FF91EF91D0
:1022D0008DB78D938EB78D938FB78D93ED93FD93BF
:1022E000882799270994DC01CB0181309105811D54
:1022F0002D903D904D905D906D907D908D909D9036
:10230000AD90BD90CD90DD90ED90FD900D911D9123
:10231000CD91DD91ED91FD910D90F894FEBF0FBE32
:0C232000EDBFED91FD910994F894FFCF02
:10232C00000000000000000000000000010023017C
:10233C0012010000000000002E0006040001000045
:10234C000000000000000000002E0004000001004E
:10235C0000000000160216027E0133025115100116
:10236C00111E111B500B411B411F1101511F511B01
:00000001FF
